S00D00006C696768742E73726563FF
S1130000F8FF002011040000AB090000AB09000058
S1130010AB090000AB090000AB090000AB0900000C
S1130020AB090000AB090000AB090000AB090000FC
S1130030AB090000AB090000AB090000AB090000EC
S1130040AB090000AB090000AB090000AB090000DC
S1130400FFFFFFFFFFFFFFFFFFFFFFFFFEFFFFFFF9
S11304104FF000004FF000014FF000024FF00003D6
S11304204FF000044FF000054FF000064FF00007B6
S11304304FF000084FF000094FF0000A4FF0000B96
S11304404FF0000C62B600F0E1F9FEE7DFF800F0CF
S11304501104FF1F80B55A48006850F47850584979
S113046008600321022000F02FF85649086055481F
S113047000684FF47A714843534908605248006851
S113048052490968C1F30361491CB0FBF1F05049BA
S1130490086000F003F800F00CF801BD4D48006856
S11304A050F480504B4908604B484FF4E0610160C0
S11304B070474A48006850F00100484908604848BD
S11304C04FF4A0610160704780B50A00C0B20428EF
S11304D001D3002072E0D2B2102A01D301206DE0D2
S11304E0404A00231370404A126852F080523E4B37
S11304F01A603E4A127852F080023C4B1A703C4A11
S1130500982313703B4A1278D206FBD4394A1278E6
S1130510C2F38102D2B2022AF8D1374A18231370E7
S1130520364A00231370C0B2002805D0022819D01F
S11305300DD3032821D02AE001230022002100202A
S1130540FFF784FF2D484121017032211FE003236E
S1130550012201210020FFF779FF28485A21017068
S1130560642114E00323012201210020FFF76EFF20
S1130570224858210170602109E001230022002152
S11305800020FFF763FF1D48402101703021194806
S113059000788006FBD5174800784006FBD5144840
S11305A0007810F03F00124A107012480078C0F32F
S11305B08100C0B20328F8D10800C0B202BD000017
S11305C0388004406004FF1F5C04FF1F4480044023
S11305D06404FF1F048004401890044040800440D9
S11305E00CB00440014006403480044008C0074079
S11305F000400640064006400440064005400640D0
S113060010B500F034F872B600221121DFF8F400BE
S113061000F090F800221021DFF8E80000F08AF8DA
S113062001220F21DFF8DC0000F084F801220E2102
S1130630DFF8D00000F07EF8641CDFF8CC008442C0
S1130640FAD31121DFF8BC0000F07AF81021DFF8AA
S1130650B40000F075F80F21DFF8A80000F070F87E
S11306600E21DFF8A00000F06BF80024E4E7DFF8C7
S11306709C00002101702648006850F080502449F5
S113068008602448007850F080002249087022480D
S11306909821017021480078C006FBD41F480078D7
S11306A0C0F38100C0B20228F8D11D4813210170A3
S11306B01C48002101701C4800681B49096851F45A
S11306C07F01194A11601949194A0A6016490860DC
S11306D014485F210170114800788006FBD50F484B
S11306E000784006FBD50C48007810F03F000A491A
S11306F008700A480078C0F38100C0B20328F8D11A
S11307007047000000F00F40404B4C000140064091
S11307103480044008C007400040064006400640BC
S1130720044006400540064000F001404480044077
S11307300000130180B51300012200F005F801BD8B
S113074080B500F04BF801BD70B405001D4EAD1B23
S113075008D0403D08D0403D08D0403D08D0403D41
S113076008D009E0184C07E0184C05E0184C03E0E9
S1130770184C01E0184CFFE74FF4807544F8215001
S1130780012A15D1426901248C4022434261012B84
S113079006D10268012313FA01F1114301600EE04E
S11307A00268012313FA01F132EA0101016006E053
S11307B04269012313FA01F132EA0101416170BC7B
S11307C07047000000F00F400090044000A0044077
S11307D000B0044000C0044000D00440026801237B
S11307E013FA01F151400160704750F8041B61B1E4
S11307F050F8042BD30744BFA9F101039A1800232E
S113080042F8043B091FFAD1EFE7704780B500F0C6
S113081055F800F005F8FFF71DFEFFF7F1FE01BDE6
S113082080B51C481C4988420BD0002006E01949B9
S1130830194A52F8202041F82020401CB0F5826F5C
S1130840F5D3144800F056F81449154A1548801A8F
S113085003E013780B70521C491C0300581E002B34
S1130860F7D111491148401A02E000220A70491CCC
S11308700200501E002AF8D10D490E4A0E48801A73
S113088003E013780B70521C491C0300581E002B04
S1130890F7D101BD0000FF1F0000000000000000B0
S11308A000000000000000005C04FF1F6804FF1F3C
S11308B01004FF1F000900004C09000080B500F07F
S11308C009F80A4800884FF6FE7108400749088075
S11308D001BD000072B606484CF220510180044864
S11308E04DF62811018062B67047000000200540D3
S11308F00E200540014908607047000008ED00E043
S113090070B4104C24680F4D2D6855F47F050D4EBE
S11309103560090611F0706151EA0070110511F497
S113092070010843190411F4702108430649086052
S1130930002000E0401CC0B29842FBD30148046090
S113094070BC704700F001404480044010B5084971
S113095079441C31074C7C441A34A14206D0081D4A
S11309600A68511888470146A142F8D110BD00BF5A
S1130970080000001400000073FEFFFF0C000000DC
S11309805C04FF1F0000000000F009F8002801D0FB
S1130990FFF7DCFF0020FFF733FE00F002F8012030
S11309A0704780B500F002B800BF7047074638466C
S11309B000F002F8FBE7000080B5C046C046024ADA
S11309C011001820ABBEFBE726000200C046C0465B
S10B09D0C046C046FFF7D8FF42
S90309CD26
