S01700004C515F4B36305F746573745F706C6C2E737265639A
S1130000F8FF002011040000C7500000C750000092
S1130010C7500000C7500000C7500000C750000080
S1130020C7500000C7500000C7500000C750000070
S1130030C7500000C7500000C7500000C750000060
S1130040C7500000C7500000C7500000C750000050
S1130050C7500000C7500000C7500000C750000040
S1130060C7500000C7500000C7500000C750000030
S1130070C7500000C7500000C7500000C750000020
S1130080C7500000C7500000C7500000C750000010
S1130090C7500000C7500000C7500000C750000000
S11300A0C7500000C7500000C7500000C7500000F0
S11300B0C7500000C7500000C7500000C7500000E0
S11300C0C7500000C7500000C7500000C7500000D0
S11300D0C7500000C7500000C7500000C7500000C0
S11300E0C7500000C7500000C7500000C7500000B0
S11300F0C750000045490000C7500000C750000029
S1130100C7500000C7500000C7500000C75000008F
S1130110C7500000C7500000C7500000C75000007F
S1130120C7500000C7500000C7500000C75000006F
S1130130C7500000C7500000C7500000C75000005F
S1130140C7500000C7500000C7500000C75000004F
S1130150C7500000C7500000C7500000C75000003F
S1130160C7500000C7500000C7500000C75000002F
S1130170C7500000C7500000C7500000C75000001F
S1130180C7500000C7500000C7500000C75000000F
S1130190C7500000C7500000C7500000C7500000FF
S11301A0FD490000C7500000C7500000C7500000C0
S11301B0C7500000C7500000C7500000C7500000DF
S11301C0C7500000C7500000C7500000C7500000CF
S11301D0C7500000C7500000C7500000C7500000BF
S11301E0C7500000C7500000C7500000C7500000AF
S1130400FFFFFFFFFFFFFFFFFFFFFFFFFEFFFFFFF9
S11304104FF000004FF000014FF000024FF00003D6
S11304204FF000044FF000054FF000064FF00007B6
S11304304FF000084FF000094FF0000A4FF0000B96
S11304404FF0000C62B605F04BFEFEE7002014E00E
S113045000B2DFF8C0140022425400B2DFF8B8142E
S11304600022425400B2DFF8B4140022425400B215
S1130470DFF8AC1403224254401C00B24128E7DBED
S1130480DFF8A00400210160DFF89C040021017062
S1130490DFF8BC0B002101707047DFF8900400689E
S11304A050F40060DFF884140860DFF88404006806
S11304B030F4E060DFF878140860DFF87404006852
S11304C050F48060DFF868140860DFF864040068A2
S11304D050F00200DFF858140860DFF85404006894
S11304E040084000DFF848140860DFF84004006862
S11304F050F00100DFF834140860DFF8580B00688E
S113050030F03000DFF84C1B0860DFF8480B00685F
S113051050F02200DFF83C1B0860DFF8380B00685D
S113052050F00400DFF82C1B0860DFF8280B00688B
S113053030F00800DFF81C1B0860DFF81C0B0068B3
S113054050F00400DFF8101B0860DFF8080B0068A7
S113055050F00100DFF8FC1A08607047F3480068A7
S113056050F40060F1490860DFF8F00A4FF480713C
S11305700160DFF8EC0A006830F00800DFF8E01AE8
S11305800860DFF8D80A006850F00300DFF8CC1ADE
S11305900860DFF8C80A006850F41020DFF8BC1ABD
S11305A00860704710B4DFF8BC0A4FF49641DF4A84
S11305B0126852F48062DD4B1A60DFF8AC2A1268CC
S11305C04FF440731A43DFF8A03A1A60DFF89C2A0C
S11305D012684FF440731A43DFF8903A1A60DFF858
S11305E0902A126852F48062DFF8843A1A604FF459
S11305F07A7202FB00F20B01B2FBF3F292B2131215
S113060013F01F03DFF86C4A2370DFF86C3A1A709A
S11306104FF4FA4358430901B0FBF1F092B2B0EB46
S1130620421010F01F00DFF8541A0870DFF8500A67
S1130630007850F00C00DFF8481A0870DFF8440A1C
S113064000210170DFF8380A007850F02000DFF84C
S1130650301A087010BC7047B448006850F4006049
S1130660B2490860B14800684FF400710843AF49CB
S11306700860DFF8140A006830F4E060DFF8081A54
S11306800860DFF8080A006830F4E060DFF8FC195D
S11306900860DFF8FC09006830F4E060DFF8F01966
S11306A00860DFF8F009006830F4E060DFF8E4196E
S11306B00860DFF8A809006830F4E060DFF89C19EE
S11306C00860DFF8C4094FF480610160DFF8C409F1
S11306D04FF440710160DFF8B4094FF440710160D8
S11306E0DFF8AC094FF440710160DFF870094FF492
S11306F040710160DFF8A009006850F08070DFF8F5
S113070098190860DFF89009006850F00070DFF86D
S113071088190860DFF88409006850F08070DFF8F9
S11307207C190860DFF87809006850F02800DFF8C9
S113073070190860DFF86C09006850F02800DFF8D1
S113074064190860DFF86009006850F02800DFF8D9
S113075058190860DFF85409006850F02800DFF8E1
S11307604C190860DFF84809006850F02800DFF8E9
S113077040190860DFF83C0900210160DFF83809FE
S113078000210160DFF8340900210160DFF830093D
S11307904FF47A710160DFF82C0902210160DFF85F
S11307A0280902210160DFF8240900210160DFF833
S11307B0200900210160DFF81C0900210160DFF835
S11307C01809DFF8181909880160DFF814090021F5
S11307D00160DFF8100900210160DFF80C09012134
S11307E00160DFF80809006850F00900DFF8FC1820
S11307F00860DFF8FC08006850F00A00DFF8F01821
S11308000860DFF8F008006850F00900DFF8E41829
S1130810086070474548006850F4785043490860C0
S1130820DFF8D40800210170DFF84408006850F0B4
S11308308050DFF83C180860DFF8C008007850F0FA
S11308408000DFF8B8180870DFF8B4089821017048
S1130850DFF8B0080078C006FAD4DFF8A8080078FA
S1130860C0F38100C0B20228F7D1DFF89C080E2142
S11308700170DFF8980800210170DFF8940800681F
S1130880DFF88C18096851F47F01DFF884281160BF
S1130890DFF88018DFF880280A60DFF87418086031
S11308A0DFF868085E210170DFF8580800788006D8
S11308B0FAD5DFF8500800784006FAD5DFF840088A
S11308C0007810F03F00DFF838180870DFF83408BB
S11308D00078C0F38100C0B20328F7D1DFF83C08E8
S11308E0006850F48050DFF834180860DFF83008EE
S11308F04FF4E0610160DFF82C08006850F001005B
S1130900DFF820180860DFF854074FF4A061016095
S1130910704700007055FF1FB455FF1FF855FF1FA7
S11309203C56FF1F9856FF1FE556FF1F38800440B2
S113093014B0044000B2012801DB00B202E000B2AE
S1130940404200B2704700B5002104F01BFA01D9FF
S113095090F0004000BD814201DA0800FFE77047D3
S113096070B5002500240026DFF8BC0700210170C3
S1130970DFF8B80700210170DFF8B4070021017027
S11309800020050037E0E4B2EDB29F20DFF8A417A1
S113099000FB0510201810F8010CE4B2EDB29F2101
S11309A0DFF8902701FB05216118497851FA80F09E
S11309B0022190FBF1F6F6B2E4B2EDB29F20DFF82B
S11309C0741700FB0510205C301A00B2FFF7B2FF69
S11309D0DFF86417097809B2814207DAE4B2EDB2AC
S11309E09F20DFF8501700FB05102654641CE4B266
S11309F09E2CC8D36D1CEDB20D2D01D20124F6E757
S1130A00DFF838070078DFF838170978DFF824278B
S1130A10895C88421FD2DFF824070078DFF82017AA
S1130A200978DFF81027891811F8011C884212D2BE
S1130A30DFF808070078DFF808170978DFF8F426EC
S1130A4089184978884206D2DFF8F806DFF8F016EC
S1130A5009780170BBE04E24DFF8EC064E210170EA
S1130A6000E0641EE4B20B2C37D3DFF8D006007824
S1130A70E4B2DFF8C016615C8842F2D2DFF8BC064B
S1130A800078E4B2DFF8AC16611811F8011C884252
S1130A90E7D2DFF8A8060078E4B2DFF89816611808
S1130AA011F8021C8842DCD2DFF890060078E4B228
S1130AB0DFF88016611811F8031C8842D1D2DFF8E0
S1130AC07C060078E4B2DFF86C16611811F8041C97
S1130AD08842C6D2DFF8700604705024DFF86C0632
S1130AE05021017000E0641CE4B2962C33D2DFF88C
S1130AF04C060078E4B2DFF83C16615C8842F2D21E
S1130B00DFF838060078E4B2DFF82816611849786F
S1130B108842E8D2DFF824060078E4B2DFF814163D
S1130B20611889788842DED2DFF810060078E4B2D2
S1130B30DFF800166118C9788842D4D2DFF8FC05C2
S1130B400078E4B2DFF8EC15611809798842CAD25A
S1130B50DFF8F8050470DFF8F0050078D0F14F00F5
S1130B60DFF8E81509784F39884206DADFF8D4054A
S1130B70DFF8D4150978017029E0DFF8C805DFF83B
S1130B80CC150978017022E0DFF8A4050121017079
S1130B90DFF8AC05DFF8B81509780170DFF8B405A3
S1130BA0DFF8B41509780170DFF8B005DFF8B01587
S1130BB009780170DFF87405DFF86C1509780170A5
S1130BC0DFF868050078DFF89C1503224254DFF84B
S1130BD060050078002840F02282DFF84C05007898
S1130BE0402880F01C82DFF87005DFF8581509787A
S1130BF00170DFF8500504783BE0DFF83C0500782D
S1130C00E4B2DFF8241509789F22DFF8283502FBC7
S1130C100131615CE4B2DFF8102512789F23DFF81C
S1130C20145503FB0252A21812F8022C891A8842A6
S1130C301EDADFF804050078E4B2DFF8EC14097872
S1130C409F22DFF8F03402FB0131615CE4B2DFF88B
S1130C50D82412789F23DFF8DC5403FB0252A21835
S1130C6012F8032C891A884202DADFF8EC040470C3
S1130C70641EE4B2032C1DD3DFF8DC040078DFF833
S1130C80C41409788842B8D0DFF8CC040078DFF8BF
S1130C90C4140978401A00B2FFF74CFE0500E4B210
S1130CA0DFF8B0040078201A00B2FFF743FE2DB23B
S1130CB08542A2DAE4B2022C4FD1DFF89C0400781A
S1130CC0DFF880140978884247D1DFF86C04007893
S1130CD0E4B2DFF8541409789F22DFF8583402FB99
S1130CE00131615CE4B2DFF8402412789F23DFF81D
S1130CF0445403FB0252A21812F8022C891A8842A7
S1130D0004DADFF854040221017026E0DFF8280435
S1130D100078E4B2DFF8101409789F22DFF8143465
S1130D2002FB0131611811F8011CE4B2DFF8F82369
S1130D3012789F23DFF8FC5303FB0252A21812F827
S1130D40022C891A884204DADFF80C0401210170AC
S1130D5003E0DFF8040400210170DFF80404DFF885
S1130D60E41309780170DFF8DC03047839E0DFF874
S1130D70C8030078E4B2DFF8B01309789F22DFF8E3
S1130D80B43302FB0131615CE4B2DFF89C231278D6
S1130D909F23DFF8A05303FB0252A2189278891A0A
S1130DA088421DDADFF890030078E4B2DFF87813A4
S1130DB009789F22DFF87C3302FB0131615CE4B2E5
S1130DC0DFF8642312789F23DFF8685303FB025291
S1130DD0A218D278891A884202DADFF884030470F0
S1130DE0641CE4B29C2C1DD2DFF874030078DFF895
S1130DF0541309788842BAD0DFF864030078DFF826
S1130E005C130978401A00B2FFF794FD0500E4B2C0
S1130E10DFF848030078201A00B2FFF78BFD2DB2EB
S1130E208542A4DAE4B29C2C3FD1DFF83403007885
S1130E30DFF810130978884237D1BF480078E4B24C
S1130E40B94909789F22BB4B02FB0131615CE4B2D2
S1130E50B54A12789F23B74D03FB0252A218927829
S1130E60891A884203DABE489C2101701DE0B24809
S1130E700078E4B2AC4909789F22AE4B02FB013101
S1130E8061184978E4B2A84A12789F23A94D03FB5C
S1130E900252A2189278891A884203DAB0489D2136
S1130EA0017002E0AE489E2101709F480078AE496F
S1130EB0A94A127842549C480078AC49A84A12784E
S1130EC0425499480078A849405C002827D19648A4
S1130ED00078A649405C9E2821D293480078A34913
S1130EE0405C91490978A04A895C401A9C2816DB29
S1130EF08D4800789C49974A127842548A48007871
S1130F009949405C88490978984A895C0818022103
S1130F1090FBF1F084490978954A88545CE0824852
S1130F2000789249405C9E2827D17F4800788E49FA
S1130F30405C012821D37C4800788C49405C7A4984
S1130F400978894A895C401A9C2816DB764800781F
S1130F508649824A12784254734800788249405C38
S1130F6071490978814A895C0818022190FBF1F0E3
S1130F706D4909787E4A88542EE06B4800787B4995
S1130F80405C9E2818D1684800787749405C002866
S1130F9012D16548007874496E4A12784254624806
S1130FA0007872496D4A127842545F48007870495B
S1130FB0634A127842540FE05B4800786A49405C07
S1130FC059490978694A895C0818022190FBF1F0B3
S1130FD055490978664A8854534800786249405C08
S1130FE05D490870504800786049405C5C4908706D
S1130FF04D4800785E49405C55490870584800786F
S113100055490978401A1F28BFF6BEAD484800214B
S1131010017045480078401C43490870D7E54348AF
S11310200078012813D300250CE0EDB250484F217D
S11310302954EDB24C484D212954EDB24B4851216D
S113104029546D1C39480078EDB28542EDD370BD4A
S1131050E456FF1F00000440040004400CB00440A8
S113106094F00F4020BF020040A0044044A004407C
S11310703480044000A0064001A006400AA00640B7
S113108003A0064002A0064010B004403090044083
S113109034900440289004403C8004403080044054
S11310A0248003400C900340149003400C800B40B8
S11310B01C800340048003400490034004800B40E0
S11310C0089003400880034008800B404C80034094
S11310D04C9003404C800B40288003409804FF1F31
S11310E0109003401890034010800B400080034090
S11310F00090034000800B400140064008C00740B8
S113110000400640064006400440064005400640B4
S113111000F00140448004400000270204800440A1
S11311201890044040800440D456FF1FDC56FF1F33
S1131130DD56FF1FB004FF1F5804FF1F5904FF1F93
S11311405E04FF1F1004FF1FD956FF1FDA56FF1F4E
S1131150DE56FF1F1104FF1FD756FF1F1204FF1F87
S1131160D856FF1F3C56FF1F7055FF1FB455FF1F75
S1131170F855FF1FF8B50024002600200021DFF8F1
S11311805C2B1578DFF8542B1278521CDFF8503B97
S11311901A70DFF8502B40231370DFF84C2BDFF864
S11311A04C3B1B781370DFF8382B1278140005E0E1
S11311B024B2DFF83C0B03212154641C24B2412CDB
S11311C0F6DBDFF81C0B047800E0641C24B2412C2D
S11311D080F26785DFF8100B067824B2DFF8140B71
S11311E0DFF8041B0978215400E0761E36B2022E83
S11311F0C0F2ED80DFF8000B007836B224B29F21F4
S1131200DFF8F82A01FB0421715C36B224B29F2274
S1131210DFF8E83A02FB0432B21812F8022C891AF9
S113122088426EDA36B224B29F20DFF8D01A00FB6F
S11312300410305C36B224B29F21DFF8C02A01FBCF
S1131240042171184978401A00B2FFF773FBDFF8E4
S1131250A81A097809B2884253DA36B224B29F2018
S1131260DFF8981A00FB04103018407836B224B224
S11312709F21DFF8882A01FB042171188978401A1C
S113128000B2FFF757FBDFF8701A097809B28842F9
S113129037DA36B224B29F20DFF8601A00FB04105C
S11312A03018807836B224B29F21DFF8502A01FB2F
S11312B004217118C978401ADFF83C1A0978884269
S11312C01FDA24B2DFF82C0A201810F8010C301AA7
S11312D000B2FFF72FFB070024B2DFF8180A205CE6
S11312E024B2DFF8101A611811F8011C401A00B278
S11312F0FFF720FB3FB2874203DA24B2DFF8F40998
S1131300265424B2DFF8EC09205CDFF8DC190978F4
S1131310884236D024B2DFF8DC09205C24B2DFF83E
S1131320D419611811F8011C401A00B2FFF702FB2E
S1131330070024B2DFF8BC09201810F8010C301A99
S113134000B2FFF7F7FA3FB2874219DB24B2DFF8A5
S1131350A409205C24B2DFF89C19611811F8011C5F
S1131360401A00B2FFF7E6FA05280ADA24B2DFF8D9
S11313708409201810F8010C00B236B2B04200DB28
S113138025E024B2DFF86809201810F8010C0028C1
S113139008D024B2DFF85809201810F8010C0228EC
S11313A07FF423AF24B2DFF84C09201810F8010CA5
S11313B036B200B28642BFF618AF24B2DFF8340961
S11313C0205CDFF82419097888423FF40EAF36B266
S11313D0012E2BD124B2DFF81C09205CDFF8081998
S11313E00978884222D1DFF81009007836B224B295
S11313F09F21DFF8082901FB0421715C36B224B275
S11314009F22DFF8F83802FB0432B21812F8012CDC
S1131410891A884205DA24B2DFF8D8080121215458
S113142004E024B2DFF8CC0800212154DFF8B80826
S1131430067824B2DFF8C808DFF8AC18097821541C
S113144000E0761C36B29D2E80F2F180DFF8A80809
S1131450007836B224B29F21DFF8A02801FB0421D2
S1131460715C36B224B29F22DFF8903802FB04325A
S1131470B2189278891A884273DA36B224B29F205D
S1131480DFF8781800FB0410305C36B224B29F21D8
S1131490DFF8682801FB0421711811F8011C401AB7
S11314A000B2FFF747FADFF85018097809B288420A
S11314B057DA36B224B29F20DFF8401800FB04103C
S11314C0301810F8010C36B224B29F21DFF82C2812
S11314D001FB0421711811F8021C401A00B2FFF735
S11314E029FADFF81418097809B2884239DA36B2D1
S11314F024B29F20DFF8041800FB0410301810F801
S1131500020C36B224B29F21DFF8F02701FB04213C
S1131510711811F8031C401ADFF8DC1709788842A7
S11315201FDA24B2DFF8D807201810F8010C301A9B
S113153000B2FFF7FFF9070024B2DFF8C407205C0C
S113154024B2DFF8BC17611811F8011C401A00B26C
S1131550FFF7F0F93FB2874203DA24B2DFF8A007BD
S1131560265424B2DFF89807205CDFF87C1709784A
S1131570884236D024B2DFF88807205C24B2DFF832
S11315808017611811F8011C401A00B2FFF7D2F954
S1131590070024B2DFF86807201810F8010C301A8D
S11315A000B2FFF7C7F93FB2874219DB24B2DFF874
S11315B05007205C24B2DFF84817611811F8011CA9
S11315C0401A00B2FFF7B6F905280ADA24B2DFF8A8
S11315D03007201810F8010C36B200B2864200D150
S11315E025E024B2DFF80807201810F8010C0128C0
S11315F008D024B2DFF8F806201810F8010C0228ED
S11316007FF41FAF24B2DFF8F806201810F8010C9D
S113161000B236B2B042BFF614AF24B2DFF8E0062F
S1131620205CDFF8C416097888423FF40AAF36B26A
S11316309D2E2AD124B2DFF8C806205CDFF8A81654
S11316400978884221D1DFF8B006007836B224B296
S11316509F21DFF8A82601FB0421715C36B224B275
S11316609F22DFF8983602FB0432B2185278891AA6
S1131670884205DA24B2DFF888069D21215404E06B
S113168024B2DFF87C069E212154DFF8540600784A
S113169024B200B28442C0F2E88124B2DFF85406D6
S11316A0205C801EC0B29B280DD324B2DFF8500604
S11316B0205C401EC0B29D2805D224B2DFF830065B
S11316C00021215430E024B2DFF82806205C401EBB
S11316D0C0B29D280DD224B2DFF82406205C801EFF
S11316E0C0B29B2805D324B2DFF80406012121549B
S11316F01AE024B2DFF8FC05205C801EC0B29B28EF
S11317000DD324B2DFF8F805205C801EC0B29B28FC
S113171005D324B2DFF8D8050221215404E024B211
S1131720DFF8CC050321215424B2DFF8D405205C72
S113173024B2DFF8C015615C401A24B2DFF8C0158A
S1131740611811F8011C401A24B2DFF8A8156118B9
S113175011F8011C50FA81F00928C0F2968024B2D5
S1131760DFF89005205C24B2DFF88815611811F8C1
S1131770011C401A00B2FFF7DDF8060024B2DFF8BE
S11317808005205C24B2DFF87815611811F8011C7B
S1131790401A00B2FFF7CEF836B2864227DA24B2F6
S11317A0DFF85005205C24B2DFF84815611811F801
S11317B0011C401A00B2FFF7BDF8052817DA24B25D
S11317C0DFF82C05205C002805D024B2DFF82005C2
S11317D0205C022805D124B2DFF81405022121542B
S11317E0C6E024B2DFF8080501212154C0E024B288
S11317F0DFF80C05205C24B2DFF80415611811F839
S1131800011C401A00B2FFF795F8060024B2DFF875
S1131810E404205C24B2DFF8DC14611811F8011C24
S1131820401A00B2FFF786F836B2864227DA24B2AD
S1131830DFF8CC04205C24B2DFF8C414611811F87A
S1131840011C401A00B2FFF775F8052817DA24B214
S1131850DFF89C04205C012805D024B2DFF8900452
S1131860205C022805D124B2DFF88404022121542B
S11318707EE024B2DFF878040021215478E024B219
S1131880DFF86C040221215472E024B2DFF8600412
S1131890201810F8010C002831D124B2DFF86004BC
S11318A0205C24B2DFF84C14615C401A2DB2DFF8DE
S11318B05014695C401A2DB2DFF83814695C401882
S11318C0072855DB24B2DFF82804205C012805D062
S11318D024B2DFF81C04205C022804D124B2DFF80F
S11318E010040221215424B2DFF80404205C0328EC
S11318F03ED124B2DFF8F8030021215438E024B2A9
S1131900DFF8EC03201810F8010C012830D124B2C0
S1131910DFF8EC03205C24B2DFF8D813615C401AD2
S11319202DB2DFF8DC13695C401A2DB2DFF8C41362
S1131930695C401807281BDB24B2DFF8B403205C81
S1131940002805D024B2DFF8A803205C022804D1C3
S113195024B2DFF89C030221215424B2DFF890035F
S1131960205C032804D124B2DFF88403012121542C
S113197024B2DFF87C03205C032800D1250024B2C4
S1131980DFF86C03205C00282CD124B2DFF870034C
S1131990205C24B2DFF86813611811F8011C401AA6
S11319A024B2DFF85013611811F8011C50FA81F0C9
S11319B0012804DA24B2CF480021215455E024B28E
S11319C0CF48205C24B2CE49611811F8011C401A9A
S11319D024B2C849611811F8011C081824B2C54979
S11319E0605442E024B2C248205C012828D124B2C9
S11319F0C048205C24B2C249611811F8011C0818BF
S1131A0024B2BC49611811F8011C401A9E2804DB59
S1131A1024B2BB489E21215427E024B2B548205C5F
S1131A2024B2B749611811F8011C081824B2B1494D
S1131A30611811F8011C401A24B2B149605414E031
S1131A4024B2AB48205C02280FD124B2A948201844
S1131A5010F8010C24B2A749605424B2A8482018F5
S1131A6010F8010C24B2A649605424B2A448205CA6
S1131A7024B2A049615C0818022190FBF1F09A4954
S1131A80087024B2152C2FDB9648007800B224B2DB
S1131A90A04229DB24B2D4F14100032148430521AB
S1131AA090FBF1F0143024B29549615C24B2914A60
S1131AB0A25C891A814217DA24B2D4F141000321CD
S1131AC04843052190FBF1F0143024B28C4961188D
S1131AD011F8011C24B2874AA21812F8012C891AA1
S1131AE0814201DA7F48047024B28548205C24B224
S1131AF08049615C0818022190FBF1F024B2DFF800
S1131B00E0196054B4F10B0080B23528BFF45DAB2A
S1131B10744800784028FFF458AB774800780A38B6
S1131B2024B2DFF8BC19615C24B29F22DFF8B43917
S1131B3002FB0432891811F89F1C24B2DFF8A02993
S1131B40A25C24B29F23DFF89C6903FB0463D218D0
S1131B5092F89F20891A8842BFF637AB664800780E
S1131B600A3824B2DFF87819615C24B29F22DFF8C6
S1131B70743902FB0432891811F8A01C24B2DFF86E
S1131B806029A25C24B29F23DFF8586903FB046335
S1131B90D21892F89E20891A8842BFF616AB56488E
S1131BA000780A3824B2DFF83819615C24B29F2225
S1131BB0DFF8303902FB0432891811F89E1C24B274
S1131BC0DFF81C29A25C24B29F23DFF8186903FB09
S1131BD00463D21892F8A020891A8842BFF6F5AAA5
S1131BE02000401E3F4908703E48007822E009B2B8
S1131BF0434A9E238B5409B23D4A8A5C002A04D08E
S1131C0009B23B4A8A5C022A03D109B2384A022348
S1131C108B5409B2364A8A5C032A03D109B2344A86
S1131C2001238B54491C2F4A127812B209B28A42FA
S1131C30DDDA401E2B490978C91F00B28142BFF684
S1131C40C4AA00B22B49415C022923D20100254ACF
S1131C50127812B209B28A42EBDB09B2254A002398
S1131C608B5409B2224A8A5C012A04D009B2204A60
S1131C708A5C022A03D109B21D4A02238B5409B299
S1131C801B4A8A5C032A03D109B2194A00238B54E4
S1131C90491CDCE700B21A49415C9D29C9D3010003
S1131CA0C1E710480078401C80B2402814D20D4887
S1131CB00078401C0DE000B2DFF824184F22425493
S1131CC000B20C494D22425400B20D4951224254F3
S1131CD0401C00B24128EEDBF1BD0000DC56FF1FC2
S1131CE0D556FF1F5B04FF1FD656FF1FDE56FF1F8E
S1131CF03C56FF1F7055FF1F5804FF1FB004FF1F01
S1131D00B455FF1FF0B400200021DFF8DC2712785F
S1131D1000230024DFF8D457DFF8D46736782E7018
S1131D20DFF8D057DFF8C86736782E70DFF8B85779
S1131D302D786D1C280023E000B2DFF8BC37C318EF
S1131D4013F8013C00B2DFF8B04704196478A342E9
S1131D5015D100B2DFF8A037C31813F8013C00B264
S1131D60DFF89447045DA34209D000B2DFF8883756
S1131D70C31813F8013C00B2DFF87C470355401C3C
S1131D8000B2DFF86C371B789B1E9842D4DBDFF877
S1131D9058070078401C00E0401C00B2DFF85037C0
S1131DA01B785B1E984280F295800023002400B2C9
S1131DB0DFF84457451915F8015C012D07D000B22E
S1131DC0DFF83437C31813F8013C032BE4D100B215
S1131DD0DFF82437C35C002B05D000B2DFF81837D6
S1131DE0C35C022BD8D103005B1E00E0401C00B290
S1131DF0DFF8FC562D786D1EA84223DA00B2DFF816
S1131E00F856455D012D05D000B2DFF8EC56455D6E
S1131E10032DEBD100B2DFF8E05645196D78012DA2
S1131E2006D000B2DFF8D05645196D78032DDDD108
S1131E30E4B2DFF8BC562D78AD1EAC4201DB0400E1
S1131E4000E0441CE4B2002C26D0DBB2591C25006F
S1131E50EDB209B22DB2A9429EDADBB2DFF89C568C
S1131E605D5D09B2DBB2CE1AE4B2DFF89076E75DCD
S1131E70DBB2DFF888C613F80CC0B7EB0C077E435F
S1131E80E4B2DBB2E71A96FBF7F6751909B2DFF88C
S1131E906C668D55491CDAE7E4B2002C7FF47CAF04
S1131EA0DFF84C462478022594FBF5F4DBB29C421F
S1131EB0BFF672AFDBB2402BBFF46EAFDFF8304633
S1131EC02478DFF83856645D022CFFF465AFDFF840
S1131ED01C060370DFF81006007800E0401C00B216
S1131EE0DFF80C361B785B1E984280F29580002345
S1131EF0002400B2DFF80056451915F8015C002DE6
S1131F0007D000B2DFF8F035C31813F8013C032BF7
S1131F10E4D100B2DFF8E035C35C012B05D000B298
S1131F20DFF8D435C35C022BD8D103005B1E00E07C
S1131F30401C00B2DFF8B8552D786D1EA84223DA94
S1131F4000B2DFF8B455455D002D05D000B2DFF8CE
S1131F50A855455D032DEBD100B2DFF89C5545191A
S1131F606D78002D06D000B2DFF88C5545196D78D8
S1131F70032DDDD1E4B2DFF878552D78AD1EAC42E7
S1131F8001DB040000E0441CE4B2002C26D0DBB2E8
S1131F90591C2500EDB209B22DB2A9429EDADBB27A
S1131FA0DFF85C555D5D09B2DBB2CE1AE4B2DFF84E
S1131FB05075E75DDBB2DFF848C513F80CC0B7EB2A
S1131FC00C077E43E4B2DBB2E71A96FBF7F6751909
S1131FD009B2DFF82C658D55491CDAE7E4B2002C10
S1131FE07FF47CAFDFF808452478022594FBF5F4F0
S1131FF0DBB29C42BFF672AFDBB2402BBFF46EAFD4
S1132000DFF8EC442478DFF8F854645D9D2CBFF4C9
S113201065AFDFF8E0040370DFF8D0040078DFF880
S1132020D4341B78984242D2DFF8C404DFF8C434B5
S11320301B780370DFF8B404007816E000B2DFF810
S1132040C034C35C00B2DFF8B844041914F8014C7E
S11320501B1B00B2DFF8A444041914F8014CE31864
S113206000B2DFF898440355401CDFF888341B782D
S11320701BB200B283426ADB00B2DFF88434C35C73
S113208000B2DFF87C44041914F8014C1B1B00B2A5
S1132090DFF86844041914F8014C53FA84F3012B53
S11320A0CCDA00B2DFF854340024C454DCE7DFF89F
S11320B044040078DFF834341B78984241D2DFF8C6
S11320C03004DFF828341B780370DFF82804007824
S11320D016E000B2DFF82434C35C00B2DFF8204419
S11320E0041914F8014CE31800B2DFF81044041981
S11320F014F8014C1B1B00B2DFF804440355401CC8
S1132100DFF8E8331B781BB200B283421FDB00B256
S1132110DFF8E833C35C00B2DFF8E443041914F8D1
S1132120014CE31800B2DFF8D443041914F8014C4D
S11321301B1B9E2BCDDB00B2DFF8C4339E24C4549A
S1132140DDE7DFF8AC03DFF8AC331B780370DFF8AE
S1132150A0030078401C80B2412817D2DFF8900316
S11321600078411C0FE009B2DFF874034F230B54CD
S113217009B2DFF888034D230B5409B2DFF880035A
S113218051230B54491C09B24129ECDBDFF85803F5
S11321900078401C61E000B2DFF86033C31813F824
S11321A0013C022B2BD200B2DFF85033C35C022B6C
S11321B025D300B2DFF84433C3185B78022B1ED258
S11321C000B2DFF838330024C45409B2DFF82833EE
S11321D0CB5C012B05D009B2DFF81C33CB5C022B9E
S11321E004D109B2DFF810330224CC5409B2C24B33
S11321F0CB5C032B03D109B2BF4B0024CC5400B2F7
S1132200BF4BC31813F8013C9D2B25D300B2BC4B24
S1132210C35C9D2B20D200B2B94BC3185B789D2BB5
S11322201AD300B2B64B9E24C45409B2B24BCB5C51
S1132230002B04D009B2B04BCB5C022B03D109B202
S1132240AD4B0224CC5409B2AB4BCB5C032B03D172
S113225009B2A94B0124CC54401CA54B1B781BB2DA
S113226000B2834297DAA048007812E000B2A24993
S1132270415C03290CD000B2A149415C00B29F4BE0
S1132280C35C5918022391FBF3F100B2944BC1547F
S1132290401C9749097809B200B28142E6DA9248B3
S11322A0007801E00200401C9149097809B200B2AB
S11322B0814261DB00B29149415C02292BD200B218
S11322C08F49415C9B2926D200B28D49415CD2B230
S11322D08B4BD35CD2B2894C145D1B1B022493FB41
S11322E0F4F3C91A002904D500B27D4900234354EC
S11322F0D9E700B28249415CD2B2814BD35CD2B2FD
S11323007E4C145D1B1B022493FBF4F3C91A00B228
S1132310734BC154C7E700B27949415C9D29C1D3CD
S113232000B27649415C0329BCD300B27349415CD5
S1132330D2B2734BD35CD2B2704C145D1B1B02241B
S113234093FBF4F359189F2904DB00B264499E23DC
S11323504354A8E700B26949415CD2B2684BD35CEC
S1132360D2B2664C145D1B1B022493FBF4F3591880
S113237000B25B4BC15496E75B480078401CA5E073
S113238000B25749411811F8011C00B2544A825C4A
S1132390914208D200B252494118497800B2504AD9
S11323A0825C914212D300B24D49415C00B24C4A66
S11323B0821812F8012C914219D200B24849415CAA
S11323C000B2474A82185278914210D200B244496E
S11323D0411811F8011C00B2414A8218527852FA8D
S11323E081F1022291FBF2F100B23D4A815400B224
S11323F04249411811F8011C00B2404A825C9142E2
S113240008D200B23D494118497800B23B4A825C87
S1132410914212D300B23949415C00B2374A821862
S113242012F8012C914219D200B23449415C00B235
S1132430324A82185278914210D200B22F49411880
S113244011F8011C00B22D4A8218527852FA81F117
S1132450022291FBF2F100B2284A815400B22849C9
S1132460411811F8011C00B2254A825C914208D23D
S113247000B223494118497800B2214A825C914252
S113248012D300B21E49415C00B21D4A821812F8F0
S1132490012C914219D200B21949415C00B2184A88
S11324A082185278914210D200B21549411811F89D
S11324B0011C00B2124A8218527852FA81F10222A7
S11324C091FBF2F100B20E4A8154401C00B208495B
S11324D00978891E8842FFF653AFF0BC70470000AC
S11324E0F855FF1F102DFF1FDC56FF1F5C04FF1F54
S11324F05B04FF1F5D04FF1F3C56FF1F7055FF1F49
S1132500B455FF1F38B500210020DFF8C02B00238D
S11325101370DFF8BC2B127812F10A0400E0641C7B
S113252024B2DFF8B00B0078401F844220DA24B2D2
S1132530DFF8A40B205C24B2DFF89C1B61188978B7
S1132540401A00B2FEF7F6F91528E8DB24B2DFF8EA
S1132550880B205C24B2DFF8801B6118C978401A0C
S113256000B2FEF7E7F91528D9DBDFF8600B047039
S1132570DFF8580B007801281BD3DFF8540B0478DC
S113258010E024B2DFF8540B205C24B2DFF8501BB7
S1132590615C0818022190FBF1F024B2DFF8381BCB
S11325A06054641C24B2DFF8240B0078801C84423D
S11325B0E7DBDFF8200B047800E0641E24B2152C5E
S11325C042DB24B2DFF8100B205C24B2DFF80C1BD2
S11325D0615C401A00B2FEF7ADF9062811DA24B2A4
S11325E0DFF8F40A201810F8010C24B2DFF8EC1A12
S11325F0611811F8011C401A00B2FEF79BF9062875
S11326001FDB24B2DFF8D00A205C24B2DFF8D01A32
S1132610615C401A00B2FEF78DF90628CDDA24B2C7
S1132620DFF8B40A201810F8010C24B2DFF8B01A4D
S1132630611811F8011C401A00B2FEF77BF9062854
S1132640BBDADFF8900A0470DFF8880A00783F28C4
S113265017D2DFF8800A0078441C0FE024B2DFF8B8
S1132660780A4F21215424B2DFF8740A51212154ED
S113267024B2DFF8680A4D212154641C24B2412C91
S1132680ECDBDFF8600A00210180DFF85C0A01213D
S11326900170DFF8580ADFF83C1A097801800AE073
S11326A0DFF8480A0088401EDFF8401A0880DFF887
S11326B0340A00210180DFF8300A007800286AD04B
S11326C0DFF8280AB0F9004054E0DFF8200A008857
S11326D0DFF8041A405C24B2DFF8101A0988611A82
S11326E0DFF80C2A1278DFF8F039D25CDFF8FC3915
S11326F01B88DFF8E4595B5DD21A5143DFF8F029F7
S11327001278DFF8E8391B88D21A91FBF2F1081825
S113271024B2DFF8CC19615C9D292AD224B2DFF8F7
S1132720BC19615C022924D324B2DFF8C819615CA6
S1132730052291FBF2F124B2DFF8A429A25C80B255
S1132740121A8A420EDB24B2DFF8A819615C052252
S113275091FBF2F180B224B2DFF88029A25C801AE6
S1132760884206DADFF87C090088401CDFF8741917
S11327700880641EDFF87809007824B200B284422D
S1132780A3DADFF860090088012889D2DFF8580944
S1132790002101708FE7DFF8600900210170DFF884
S11327A05C0900210170DFF8580900210170DFF88D
S11327B02009047807E0DFF848090078401CDFF8B6
S11327C040190870641C24B2DFF820090088844290
S11327D027DA24B2DFF800092018407824B2DFF8A1
S11327E0F818615C401A022807DBDFF80C0900784E
S11327F0401CDFF804190870E4E724B2DFF8D808B5
S1132800205C24B2DFF8D01861184978401A0228F5
S1132810D1DBDFF8E8080078401CDFF8E018087026
S1132820D0E7DFF8C80800883E2824D3DFF8CC08B6
S11328300078042809D2DFF8C0080078042804D2FC
S1132840DFF8C008012101702FE0DFF8B00800783C
S1132850DFF8A4180978401A00B2FEF76BF80F28C5
S113286004DADFF8A008022101701EE0DFF8940802
S11328700321017019E0DFF874080088323880B24F
S11328800C2804D2DFF87C08032101700DE0DFF886
S113289078080078002804D0DFF868080121017066
S11328A003E0DFF8600804210170DFF86008DFF856
S11328B0541809780170DFF84C08007802284FD1C9
S11328C0DFF80C08047805E024B2DFF80C084F2187
S11328D02154641CDFF81408008824B2A042C0F21A
S11328E0838024B2DFF8F007205C50281ED324B282
S11328F0DFF8E407205CDFF8F4170988401A3E305B
S11329004F280DDB24B2DFF8D007205CDFF8DC179A
S11329100988401AC23824B2DFF8BC176054D8E7DB
S113292024B2DFF8B4074F212154D2E724B2DFF8F0
S1132930A807205CDFF8B417098810FA81F03E3844
S11329405028C1DA24B2DFF89007205CDFF89C1726
S113295009883E39081824B2DFF87C176054B8E7B8
S1132960DFF8A007007801283ED0DFF86407047878
S113297005E024B2DFF860074F212154641CDFF81E
S11329806C07008824B2A0422EDB24B2DFF848078B
S1132990205C502816D324B2DFF83C07205C401E8C
S11329A04F2809DB24B2DFF83007205C401E24B234
S11329B0DFF824176054E1E724B2DFF81C074F2145
S11329C02154DBE724B2DFF81007205C401C80B2FE
S11329D05028CED224B2DFF80007205C401C24B279
S11329E0DFF8F4166054C9E7DFF82407002101601A
S11329F0DFF8200700210180DFF8F0060088332883
S1132A0064D3DFF8CC060078441C28E0DFF8000724
S1132A10006824B2DFF8C016615C4018DFF8F016D5
S1132A20086024B2DFF8C40600880A38844215D14D
S1132A30DFF8DC060068DFF8B4160988DFF89026B2
S1132A401278891A0A39B0FBF1F0DFF8C41608606D
S1132A50DFF8C406DFF8B81609680160641CDFF803
S1132A608C0600880A3824B2A042CFDADFF8600668
S1132A700078441C12E0DFF89C06058824B2DFF8D5
S1132A805806205CDFF888160968401A00B2FDF782
S1132A9051FF4019DFF87C160880641CDFF84C06EF
S1132AA000880A3824B2A042E5DADFF86806008814
S1132AB0DFF838160988DFF818261278891A0A39D7
S1132AC090FBF1F0DFF84C16088058E0DFF80006C0
S1132AD00078441C20E0DFF83806006824B2DFF8F0
S1132AE0F815615C4018DFF82816086024B2DFF896
S1132AF0FC05008884420ED1DFF814060068DFF874
S1132B00EC150988DFF8C8251278891AB0FBF1F0B2
S1132B10DFF8FC150860641CDFF8D005008824B2D7
S1132B20A042D8DADFF8A8050078441C12E0DFF8E8
S1132B30E405058824B2DFF8A005205CDFF8D01591
S1132B400968401A00B2FDF7F5FE4019DFF8C41514
S1132B500880641CDFF89405008824B2A042E6DAF9
S1132B60DFF8B0050088DFF884150988DFF86025F0
S1132B701278891A90FBF1F0DFF89815088000218B
S1132B80DFF86C0D007800284DD1DFF87805007867
S1132B90012848D1DFF8540500883F2843D3232473
S1132BA011E024B2DFF84C05205C083024B2DFF8D1
S1132BB03025A25C24B2DFF82435E35CD21A9042BB
S1132BC000DA491C641C24B23C2CEADBC9B2142987
S1132BD029D3DFF8080590F82800DFF8001591F8EC
S1132BE02310401A01281EDBDFF8F00490F82800B7
S1132BF0DFF8EC1491F82310401A052813DADFF8F3
S1132C00E00490F82300DFF8D81491F82810401A53
S1132C10401E042807D2DFF8F00401210170DFF818
S1132C20D00C01210170DFF8E0040078002816D0F0
S1132C30DFF8E8040088401CDFF8E0140880DFF8BF
S1132C40DC040088DFF8D8140988884207D3DFF849
S1132C50CC0400210180DFF8B00400210170DFF80A
S1132C60900C0078002817D0DFF8B8040088401CC6
S1132C70DFF8B0140880DFF8AC040088DFF8A01493
S1132C800988B0EB810F07DBDFF89804002101808D
S1132C90DFF85C0C0021017031BD2DE9F74F010014
S1132CA000240025002700265FF000085FF00009DB
S1132CB05FF0000A00209DF8042052FA81F20223FA
S1132CC092FBF3F214008B465BE05FFA8BFBDFF8B8
S1132CD008041BF800009DF80810401A5FFA8BFBEB
S1132CE0DFF8F4131BF801109DF80820891A01FB82
S1132CF0008847F23150804508DB404602F054F822
S1132D00290002F07BF805005FF000085FFA8BFBF6
S1132D10E4B2BBEB04005FFA8BFBE4B2BBEB04014F
S1132D2001FB009947F23150814508DB484602F027
S1132D303BF8390002F062F807005FF000095FFA1F
S1132D408BFBE5481BF800009DF80810401A5FFA59
S1132D508BFBE4B2BBEB040101FB00AA504600B2BA
S1132D60FDF7E8FD47F23151884208DB504602F096
S1132D701BF8310002F042F806005FF0000A1BF174
S1132D80010B9DF804005FFA8BFB58459DD2404629
S1132D9002F00AF8290002F031F80500484602F072
S1132DA003F8390002F02AF80700504601F0FCFF4E
S1132DB0310002F023F806002800DFF8381B02F087
S1132DC05FF801D2DFF82C5B3800DFF8281B02F033
S1132DD057F801D2DFF81C7B2800DFF81C1B02F037
S1132DE04FF807D23000FDF7AEFD0100300002F0CD
S1132DF059F826E02800390002F0D2F802F03CF934
S1132E0002F062F904000D00300002F035F92200EE
S1132E102B0002F0D1F904000D00AD480078B3494D
S1132E20098810FA81F0143802F0EAFA22002B0023
S1132E3002F0FCFA0022DFF8C43A02F0BDF902F015
S1132E40C7FBDFF8BC1A01F09DFF01D85FF07E508C
S1132E50DFF8B01A02F014F801D2DFF8280DBDE84B
S1132E60FE8F2DE9F0410024002500260027994813
S1132E70007897490978401A3328C0F2248194488D
S1132E80007810F1030801E018F101089048007877
S1132E902830804580F217818E4800783228C0F0AF
S1132EA0FD808D4818F800009F21DFF8442C01FBB9
S1132EB00821401810F89F0C874918F801109F2228
S1132EC0DFF82C3C02FB0832891891F89F10401A55
S1132ED0DFF8201C0978884280F2E0807E4818F8E8
S1132EE000009F21DFF8082C01FB0821401810F88E
S1132EF0A00C794918F801109F22DFF8F43B02FB7B
S1132F000832891891F89E10401ADFF8E81B0978F6
S1132F10884280F2C380704818F800009F21DFF8CF
S1132F20D02B01FB0821401810F89E0C6A4918F8B0
S1132F3001109F22DFF8B83B02FB0832891891F890
S1132F40A010401ADFF8AC1B0978884280F2A680F2
S1132F50624818F80000401D47E0DFF8981B097824
S1132F600A399F22DFF8883B02FB0832821892F864
S1132F709F209F23DFF878CB03FB08C3C31813F803
S1132F809F3CD21A91422FDADFF8681B09780A397C
S1132F909F22DFF85C3B02FB0832821892F8A020E3
S1132FA09F23DFF84CCB03FB08C3C31813F89E3CE4
S1132FB0D21A914218DADFF83C1B09780A399F22A9
S1132FC0DFF82C3B02FB0832821892F8A1209F23E1
S1132FD0DFF81CCB03FB08C3C31813F89D3CD21ABB
S1132FE0914201DA44460125401C3B4918F801107E
S1132FF0891E8842B1DB3A4818F80000401F47E0B8
S1133000DFF8F01A09780A399F22DFF8E43A02FB64
S11330100832821892F89F209F23DFF8D4CA03FB5A
S113302008C3C31813F89F3CD21A91422FDADFF871
S1133030C41A09780A399F22DFF8B43A02FB08322D
S1133040821892F89E209F23DFF8A4CA03FB08C3CA
S1133050C31813F8A03CD21A914218DADFF8941A74
S113306009780A399F22DFF8883A02FB083282186D
S113307092F89D209F23DFF878CA03FB08C3C31886
S113308013F8A13CD21A914201DA46460127401EA8
S1133090114918F80110891C8142B1DBEDB2012DF0
S11330A07FF4F2AEFFB2012F7FF4EEAEF6B2E4B2DB
S11330B0301B00B2FDF73EFC0328BFF6E5AEDFF897
S11330C0E00C01210170BDE8F0810000DB56FF1F18
S11330D0DC56FF1F5B04FF1FF855FF1F7055FF1FD1
S11330E0B455FF1FBA56FF1F9C04FF1FB856FF1F9D
S11330F0D556FF1F1404FF1FDF56FF1FE056FF1FA6
S1133100E156FF1FE256FF1FE456FF1FE356FF1F61
S11331108056FF1F9E56FF1F8456FF1FA056FF1F99
S11331206004FF1FA256FF1F38B500210020DFF8FE
S1133130582A00231380DFF8542A00231380DFF871
S1133140502A37231370DFF84C2A1288DFF8483AE4
S11331501B78D21A0B2AC0F21881DFF8380A0088CB
S1133160DFF82C1A097889B2884205D2DFF8200AE0
S1133170DFF8201A09880170DFF8140A00780BE0E0
S1133180DFF8041A098800B2DFF8182C825C891869
S1133190DFF8F4291180401E00B2DFF8F419097831
S11331A0091F8842ECDADFF8E009B0F900000521D4
S11331B090FBF1F0D0F14F00DFF8CC190880DFF874
S11331C0DC090068D0F14F00DFF8C0190880DFF88F
S11331D0D0094088DFF8C8190880DFF8C409DFF88F
S11331E0C01989884180DFF8B809DFF8B419C988A3
S11331F08180DFF8AC09DFF8A8190989C180DFF8FC
S1133200A009DFF8881909880181DFF89409B0F969
S11332100000DFF88C19B1F902100818DFF88019E2
S1133220B1F904104018DFF87819B1F9061010EB61
S11332304100DFF86C19B1F908105F2202FB0100AC
S1133240642190FBF1F0DFF844190880DFF8580B93
S1133250007801281FD1DFF83C0900883F281AD3E1
S1133260DFF834090078DFF83C1B405CDFF82419F0
S11332700988DFF8302B891811F8011C401A00B2B4
S1133280FDF758FB03214843042190FBF1F0DFF8DC
S11332901C1B088003E0DFF8140B00210180DFF819
S11332A0F4080088D0F14100052148430D2190FB2A
S11332B0F1F4DFF8D408B0F90000FDF73BFB082176
S11332C090FBF1F00019DFF8E81AB1F900100818C2
S11332D0DFF8E01A0880DFF8E00ADFF8E01A09886E
S11332E00180DFF8A808B0F90000FDF723FB0721EF
S11332F090FBF1F0DFF8C81AB1F900100818DFF8F4
S1133300AC1A09880818DFF8BC1A0880DFF8B80A74
S1133310DFF8B81A09880180DFF8B40AB0F90000B0
S1133320DFF8901A0988DFF86028B2F90020DFF886
S1133330883A1B88DFF85048B4F90040DFF8945A03
S1133340B5F90050641B634302FB0131DFF8742AB2
S11333501288DFF83838B3F9003003FB0211DFF8C4
S1133360682A1288DFF82438B3F90030DFF8684A95
S1133370B4F900401B1B03FB02110A2291FBF2F17A
S11333800818DFF8581A088005E0DFF8500ADFF85B
S1133390501A09880180DFF8380A0088F030DFF815
S11333A03C1AB1F90010884207DADFF8240AB0F9B0
S11333B00000F030DFF8241A0880DFF8200AB0F9A2
S11333C00000DFF80C1A0988F039884207DADFF8C0
S11333D0000AB0F90000F038DFF8001A0880DFF8BE
S11333E0040ADFF8F819B1F900100160DFF8F009F8
S11333F0DFF8E81909880180DFF8D809DFF88817B1
S113340009880180DFF8D009DFF880170988018076
S1133410DFF8D409DFF87C1709880180DFF8CC09CC
S11334200078002812D1DFF8880BDFF8C419098866
S11334300180DFF8BC094088DFF8781B0880DFF8DA
S1133440B0098088DFF8701B088071E0DFF89C0900
S11334500078012812D1DFF89809C088DFF8501BE2
S11334600880DFF88C090089DFF8481B0880DFF842
S113347080094089DFF8401B088059E0DFF86C09B7
S11334800078022812D1DFF868098089DFF8201B50
S11334900880DFF85C09C089DFF8181B0880DFF8B2
S11334A05009008ADFF8101B088041E0DFF83C096E
S11334B00078032812D1DFF83809408ADFF8F01ABF
S11334C00880DFF82C09808ADFF8E81A0880DFF822
S11334D02009C08ADFF8E01A088029E0DFF80C0927
S11334E00078042812D1DFF80809008BDFF8C01A2D
S11334F00880DFF8FC08408BDFF8B81A0880DFF892
S1133500F008808BDFF8B01A088011E0DFF8E008DB
S1133510C08BDFF89C1A0880DFF8D408008CDFF831
S1133520941A0880DFF8C808408CDFF88C1A0880E9
S1133530DFF87C0A0088DFF8841A09880818DFF8A5
S1133540701A0880DFF86C0A0088DFF8741A09889A
S11335500818DFF8601A0880DFF85C0A0088DFF8D2
S1133560201B09880818DFF8501A0880DFF838088B
S11335700078012822D1DFF81C0600884130DFF8EA
S1133580301A09884843412190FBF1F0022190FB55
S1133590F1F0DFF81C1A0880DFF8F80500884130E4
S11335A0DFF8101A09884843022190FBF1F0412109
S11335B090FBF1F0DFF8FC1908805FE0DFF8E80722
S11335C0007802281CD1DFF8CC050088801EDFF8C3
S11335D0E01909884843412190FBF1F0DFF8D01944
S11335E00880DFF8B0050088801EDFF8C819098854
S11335F04843412190FBF1F0DFF8B81908803DE021
S1133600DFF8A407007803281CD1DFF888050088B8
S1133610001FDFF89C1909884843412190FBF1F011
S1133620DFF88C190880DFF86C050088001FDFF8CC
S1133630841909884843412190FBF1F0DFF874199B
S113364008801BE0DFF84C050088001FDFF86019D4
S113365009884843412190FBF1F0DFF854190880B0
S1133660DFF830050088001FDFF84819098848434F
S1133670412190FBF1F0DFF83C190880DFF81405D4
S11336800088402834D1DFF820070078012804D0CE
S1133690DFF81407007802282AD1DFF80C07007835
S11336A001281DD1DFF8DC090088401CDFF8D4199B
S11336B00880DFF8D009008803280AD3DFF8F0086F
S11336C00088DFF8F41809880818DFF8BC190880A6
S11336D0FBE0DFF8B409DFF8D81809880180F4E0CA
S11336E0DFF8CC0800881430DFF89C190880ECE07F
S11336F0DFF898090068FDF726F95FF07E5101F0C4
S1133700AFFF40F0A180DFF87C0900210180322165
S113371000E0491C09B2DFF87C040088814233DAF6
S113372009B2DFF88006081810F8010C09B2DFF8B6
S113373074268A1812F8022C90420BD209B2DFF8D0
S11337406406085C09B2DFF85C268A1812F8012CBA
S1133750904219D309B2DFF84C06081810F8020C8D
S113376009B2DFF840268A1812F8012C9042D0D210
S113377009B2DFF83006081810F8010C09B2DFF8B6
S113378024268A5C9042C4D2DFF804090170DFF871
S1133790000900783F2813D37821DFF81408008843
S11337A003225043DFF80C28128810FA82F0042216
S11337B090FBF2F0FDF7CFF8DFF8CC18088084E036
S11337C0DFF8CC0800783B2813D36E21DFF8E0073C
S11337D0008803225043DFF8DC27128810FA82F0B5
S11337E0042290FBF2F0FDF7B6F8DFF89C1808808D
S11337F06BE0DFF89C080078372812D36421DFF8E7
S1133800B00700884000DFF8AC27128810FA82F075
S1133810032290FBF2F0FDF79EF8DFF86C180880A5
S113382053E05E21DFF888070088DFF888271288D4
S1133830520012FA80F0032290FBF2F0FDF78BF8AD
S1133840DFF84418088040E0DFF8380800210180E0
S1133850DFF85C070088DFF8481A0988DFF8402A97
S113386012885143DFF848271288DFF848371B884D
S1133870D21A51434FF4617291FBF2F1401ADFF80E
S113388034170988884206DADFF8FC07DFF82417C2
S11338900988018019E0DFF818070088DFF8001AAA
S11338A00988DFF8FC2912885143DFF804271288BD
S11338B0DFF800371B88D21A51434FF4617291FB31
S11338C0F2F1401ADFF8C0170880DFF8D40400785A
S11338D000280BD0DFF83C0D00880B2806D2DFF857
S11338E0340D0088401CDFF82C1D088031BD000019
S11338F0E556FF1FCDCCCC3D0000964300804640EA
S11339003433733F333373BF38B50024002572B6A4
S1133910DFF8040D0078012878D1DFF888090078F1
S11339200006FAD5DFF88009DFF8801909780170FC
S1133930DFF8700900780006FAD5DFF86C09412138
S11339400170DFF8600900780006FAD5DFF858093D
S11339509F210170402414E0DFF848090078000634
S1133960FAD59F20624900FB0410285CDFF838195F
S11339700870DFF83C0900F015F96D1C9F2DEBDB96
S1133980641E002C01D40025F8E740240FE0DFF882
S1133990140900780006FAD5DFF81809205CDFF86E
S11339A008190870DFF8080900F0FCF8641E002C00
S11339B0EDD540240FE0DFF8EC0800780006FAD5D6
S11339C0DFF8F408205CDFF8E0180870DFF8E0089E
S11339D000F0E8F8641E002CEDD540240FE0DFF879
S11339E0C40800780006FAD5DFF8B803205CDFF8D5
S11339F0B8180870DFF8B80800F0D4F8641E002C7A
S1133A00EDD5DFF8140C002101706EE0DFF8080C2E
S1133A100078022814D10024412C66DADFF88408E7
S1133A2000780006FAD55B480088DE49405CDFF880
S1133A3078180870DFF8780800F0B4F8641CEBE735
S1133A40DFF8D40B007803282CD1DFF87008007855
S1133A50002813D1DFF84C0800780006FAD5DFF807
S1133A604808DFF85C1809880170DFF8500800780E
S1133A7090F00100DFF84418087036E0DFF82408FD
S1133A8000780006FAD5DFF82008DFF8FC1509886D
S1133A900170DFF82808007890F00100DFF81C18A6
S1133AA0087022E0DFF8700B007870280CD1DFF882
S1133AB0F40700780006FAD5B94801210170DFF84F
S1133AC0580B0021017010E0DFF84C0B00787328CC
S1133AD00BD1DFF8D00700780006FAD5B0480021F2
S1133AE00170DFF8340B0021017062B631BD0000B3
S1133AF0102DFF1F5804FF1F00200021DFF81C2B8E
S1133B005FF0FF331360DFF8182B12681000420BCC
S1133B1012F0010292F001021100DFF8082B127872
S1133B20002A0BD0C9B2012904D1DFF8F81A012206
S1133B300A7003E0DFF8EC1A00220A70010B11F09E
S1133B40010191F00101C9B2012904D1DFF8D81AA9
S1133B5001220A7003E0DFF8D01A00220A70C00ABA
S1133B6010F0010090F00101C9B2012904D1DFF87D
S1133B70BC0D0121017003E0DFF8B00D00210170DC
S1133B8070470000000080BFBC56FF1FCA56FF1FCD
S1133B90EB56FF1FB856FF1FD556FF1F8056FF1F59
S1133BA08C56FF1F0100481E0029FBD1704780B5C9
S1133BB001F0A9FEDFF8740A0078002803D0022877
S1133BC078D001D3EAE0E9E02A22DFF8340B017867
S1133BD0002001F03BFFDFF8582A00210A2001F001
S1133BE052FFDFF8400A007801F0E8F802000021F3
S1133BF0642001F085FFDFF80C2B01210A2001F07D
S1133C0042FF7A48007801F0D9F8020001216420CB
S1133C1001F076FFDFF8F02A02210A2001F033FFD9
S1133C20DFF8E80A006801F0C9F802000221642004
S1133C3001F066FFDFF8D82A03210A2001F023FFF0
S1133C40DFF8D00A008801F0B9F8020003216420EB
S1133C5001F056FFDFF8C02A04210A2001F013FF07
S1133C605B48008801F0AAF802000421642001F0F6
S1133C7047FFDFF8A82A05210A2001F004FFDFF836
S1133C802C06007801F09AF802000521642001F066
S1133C9037FFDFF88C2A06210A2001F0F4FEDFF852
S1133CA0840A007801F08AF802000621642001F0F9
S1133CB027FF73E02A22DFF8480A0178002001F088
S1133CC0C5FEDFF8642A00210A2001F0DCFE384832
S1133CD0B0F9000001F068F802000021642001F04E
S1133CE00FFFDFF8482A01210A2001F0CCFE3348F7
S1133CF0B0F9000001F058F802000121642001F03D
S1133D00FFFEDFF82C2A02210A2001F0BCFE2C4819
S1133D10B0F9000001F048F802000221642001F02B
S1133D20EFFEDFF8102A03210A2001F0ACFE274839
S1133D30B0F9000001F038F802000321642001F01A
S1133D40DFFEDFF8F42904210A2001F09CFE9B48E1
S1133D50008801F033F802000421642001F0D0FE51
S1133D60DFF8D82905210A2001F08DFE9448008847
S1133D7001F024F802000521642001F0C1FEDFF8FF
S1133D80C02906210A2001F07EFEBD48008801F00A
S1133D9015F802000621642001F0B2FE01BD000006
S1133DA0E756FF1FF855FF1FE256FF1FC456FF1FBB
S1133DB09E04FF1FC056FF1FC256FF1FA004FF1F13
S1133DC0A204FF1FC656FF1FC856FF1FA404FF1FEF
S1133DD09804FF1FBE56FF1FCC56FF1F9404FF1FFD
S1133DE09604FF1F288003409A04FF1FE956FF1F13
S1133DF06404FF1F10B50124DFF8300800780028A0
S1133E0040F0D480DFF820080078002800F0CE804D
S1133E10E4B2012C22D10021002001F090FDDFF852
S1133E20100B007800F0CAFF02000021002001F00E
S1133E3067FEDFF8000B008800F0C0FF02000021DD
S1133E40282001F05DFEDFF8F00A007800F0B6FFEC
S1133E5002000021502001F053FE641CE4B2022C45
S1133E602DD10121002001F06AFDDFF8D00A00788D
S1133E7000F0A4FF02000121002001F041FEDFF860
S1133E80C00A006800F09AFF02000121282001F016
S1133E9037FEDFF82C0BB0F9000000F085FF0200BC
S1133EA00121502001F02CFEDFF8F403008800F01B
S1133EB085FF02000121642001F022FE641CE4B2AB
S1133EC0032C22D10221002001F039FDDFF8F40A8D
S1133ED0B0F9000000F068FF02000221002001F0A8
S1133EE00FFE6948008800F069FF020002213C20AF
S1133EF001F006FEDFF8C803008800F05FFF02004F
S1133F000221642001F0FCFD641CE4B2042C2CD1D9
S1133F100321002001F013FDDFF8AC0A007800F063
S1133F204DFF02000321002001F0EAFDDFF89C0AA6
S1133F30007800F043FF02000321282001F0E0FD97
S1133F40DFF88C0A007800F039FF020003214620D4
S1133F5001F0D6FDDFF87C0A007800F02FFF0200A4
S1133F6003216E2001F0CCFD641CE4B2052C1DD1AC
S1133F700421002001F0E3FCD248007800F01EFF89
S1133F8002000421002001F0BBFDDFF84C0A007898
S1133F9000F014FF02000421282001F0B1FD3B4889
S1133FA002680421502001F0ABFD012410BD000083
S1133FB08A04FF1F8C04FF1F8E04FF1FAE56FF1FD1
S1133FC0B056FF1F38B500240025DFF8100AFFF7AC
S1133FD0E9FDDFF80C0A5FF0FF310160DFF8040A45
S1133FE000680500280AC0B2C0430400E4B2012CF2
S1133FF004D1DFF8F4090121017003E0DFF8E809D6
S113400000210170E4B2022C04D1DFF8E00901219F
S1134010017003E0DFF8D40900210170E4B2042C3C
S113402004D1DFF8CC090121017003E0DFF8C009F5
S113403000210170E4B2082C04D1DFF8B809012191
S1134040017003E0DFF8AC0900210170E4B2102C28
S113405004D1DFF8A4090121017003E0DFF8980915
S113406000210170E4B2202C04D1DFF8F00B01210F
S1134070017003E0DFF8E40B0021017031BD0000A2
S1134080B256FF1FB456FF1FB656FF1F8856FF1FB8
S1134090EA56FF1F80B5FFF795FFDFF8580900784F
S11340A0002825D0FFF78EFFDFF8480900780028A4
S11340B002D11DE0FFF786FFDFF8380900780028F9
S11340C0F8D1DFF89C0B0078022807D2DFF8900BB8
S11340D00078401CDFF8881B087003E0DFF8800BD1
S11340E001210170DFF8180600210170FFF75FFD60
S11340F0DFF8F8080078002818D0FFF763FFDFF82E
S1134100EC080078002802D110E0FFF75BFFDFF82D
S1134110DC0800780028F8D15FF0FF32DFF8E00512
S11341200178DFF83C0B007800F0CEF8DFF8300BB4
S11341300078002800F0B280FFF744FFDFF8B008F1
S11341400078002837D0FFF73DFFDFF8A408007897
S1134150002802D12FE0FFF735FFDFF8940800783C
S11341600028F8D1DFF8F80A0078002806D02022C9
S1134170DFF88C050178002001F068FCDFF8800589
S11341800078072807D2DFF878050078401CDFF8AC
S11341907015087003E0DFF8680500210170DFF88E
S11341A0C00A0078002806D02A22DFF854050178D6
S11341B0002001F04BFCDFF8A40A0078002832D07C
S11341C0FFF700FFDFF8940A0078002802D12AE004
S11341D0FFF7F8FEDFF8840A00780028F8D1DFF84A
S11341E0800A0078002806D02022DFF81405017820
S11341F0002001F02BFCDFF808050078012807D324
S1134200DFF8FC040078401EDFF8F414087003E0C3
S1134210DFF8EC04072101702A22DFF8E4040178B6
S1134220002001F013FCDFF8D0070078002817D035
S1134230FFF7C8FEDFF8C0070078002802D10FE0BE
S1134240FFF7C0FEDFF8B00700780028F8D101229C
S1134250DFF8AC040178DFF8080A007800F034F8DD
S1134260DFF884070078002818D0FFF7ABFEDFF8EA
S113427078070078002802D110E0FFF7A3FEDFF8EA
S1134280680700780028F8D15FF0FF32DFF8700487
S11342900178DFF8CC09007800F016F801BD0000C1
S11342A09E56FF1F04A0064007A006405A04FF1FA5
S11342B0803801007055FF1FB455FF1FF656FF1FCD
S11342C0A456FF1FE756FF1F70B504000D0016002B
S11342D0E4B2012C40F0C980EDB2002D0BD0022DC8
S11342E041D025D3042D6ED055D3062D00F0A180E6
S11342F0C0F08480B9E0CB4800783018002801D0A1
S1134300012000E00020C74908702A220021002073
S113431001F09CFB0021642001F011FBC1480078EE
S113432000F04CFD02000021642001F0E9FB9CE058
S1134330DFF8300900783018DFF8281908702A22CD
S11343400121002001F082FB0121642001F0F7FA31
S1134350DFF81009007800F031FD0200012164202B
S113436001F0CEFB81E0E94800683018E7490860B5
S11343702A220221002001F069FB0221642001F0BD
S1134380DEFAE248006800F019FD02000221642010
S113439001F0B6FB69E0DF4800883018DD49088089
S11343A02A220321002001F051FB0321642001F0A3
S11343B0C6FAD848008800F001FD020003216420F9
S11343C001F09EFB51E0DFF8A00800883018DFF808
S11343D0981808802A220421002001F037FB0421C8
S11343E0642001F0ACFADFF88008008800F0E6FCF5
S11343F002000421642001F083FB36E0DFF86C083E
S113440000783018DFF8641808702A22052100208B
S113441001F01CFB0521642001F091FADFF84C083F
S1134420007800F0CBFC02000521642001F068FB59
S11344301BE0BC4800783018002801D0012000E0BF
S11344400020B84908702A220621002001F0FEFA53
S11344500621642001F073FAB248007800F0AEFC43
S113446002000621642001F04BFBE4B2022C40F070
S1134470CF80EDB2002D0BD0022D41D024D3042DDA
S113448076D059D3062D00F0A980C0F08C80BFE00F
S1134490DFF8DC0700883018DFF8D41708802A22F8
S11344A00021002001F0D2FA0021642001F047FA33
S11344B0DFF8BC07B0F9000000F076FC0200002130
S11344C0642001F01DFBA3E0DFF8A8070088301882
S11344D0DFF8A01708802A220121002001F0B6FA93
S11344E00121642001F02BFADFF88807B0F90000FD
S11344F000F05AFC02000121642001F001FB87E076
S1134500DFF8740700883018DFF86C1708802A2257
S11345100221002001F09AFA0221642001F00FFA2E
S1134520DFF85407B0F9000000F03EFC020002215D
S1134530642001F0E5FA6BE0DFF8400700883018EA
S1134540DFF8381708802A220321002001F07EFAC0
S11345500321642001F0F3F9DFF82007B0F900002B
S113456000F022FC02000321642001F0C9FA4FE0AC
S1134570DFF80C0700883018DFF8041708802A22B7
S11345800421002001F062FA0421642001F0D7F92B
S1134590DFF8EC06008800F011FC0200042164201E
S11345A001F0AEFA34E0DFF8DC0600883018DFF8FA
S11345B0D41608802A220521002001F047FA05219B
S11345C0642001F0BCF9DFF8BC06008800F0F6FBBB
S11345D002000521642001F093FA19E0DFF8A8062F
S11345E000883018DFF8A01608802A22062100204F
S11345F001F02CFA0621642001F0A1F9DFF8880605
S1134600008800F0DBFB02000621642001F078FA48
S113461070BD0000A856FF1FE656FF1FC0F00F40F4
S1134620D0F00F40AD04FF1FF456FF1FAE04FF1F70
S11346304C630000DFF8540640F203110160DFF818
S1134640500640F203110160DFF8480640F20311FE
S11346500160DFF8440640F203110160DFF83C0614
S113466040F203110160DFF8380640F203110160E3
S1134670DFF8300640F203110160DFF82C0640F247
S113468003110160DFF8240640F203110160DFF832
S113469020067FF0FF010160DFF818067FF4801127
S11346A00160DFF8140640F203110160DFF80C0624
S11346B040F203110160DFF8080640F203110160C3
S11346C0DFF8000640F203110160DFF8FC0540F258
S11346D003110160DFF8F40540F203110160DFF813
S11346E0F00540F203110160DFF8E80540F2031120
S11346F00160DFF8E4057FF47F510160704700003A
S1134700F556FF1FEC620000FC620000A804FF1FC6
S1134710586300006004FF1F646300000C63000022
S113472070630000AC04FF1F7C630000886300001A
S113473094630000A06300001C6300002C6300006D
S11347403C63000038B500240025DFF89005012102
S1134750017072B6FCF75EF800F090FF01F019F9F1
S1134760FFF768FFFBF778FFFBF71CFFFBF795FEED
S1134770FBF7F4FE05E0FFF71AFAFFF7BDF9FFF7C0
S113478089FCDFF8580500780028F4D1DFF8D0045C
S113479000210170DFF84805FFF704FADFF840054F
S11347A0FFF700FADFF83C050068000D10F0010087
S11347B0DFF834150870DFF8340500210170FBF7C9
S11347C045FE2D2001F07DFA582001F07AFA62B6F8
S11347D0DFF81C0500780028FAD0002400E0641CEF
S11347E0A4B2412C25D2002509E0ADB2A4B29F2089
S11347F0DFF8001500FB04100A2129546D1CADB22A
S11348009F2DECD2DFF864040078ADB2A4B29F21EE
S1134810DFF8E42401FB0421695C8842E5D2ADB2EF
S1134820A4B29F20DFF8CC1400FB0410FF2129540C
S1134830E4E7DFF8C80400783C49097891F0010105
S11348400843C0B200281AD1DFF8B4040068401C41
S1134850DFF8AC140860DFF8AC0400683221484388
S1134860DFF89C140968884209D2DFF8900401211A
S11348700170DFF88C04DFF88C1409680160DFF83C
S113488088040078002813D1DFF880040088401CD5
S1134890DFF878140880DFF874040088C82807D388
S11348A0DFF86804C8210180DFF864040121017085
S11348B0FCF756F8DFF85C040078002822D0FCF7F7
S11348C059FCFDF71FFAFDF71DFE1A48008832381F
S11348D080B20E2811D2DFF840040268D2B2154823
S11348E00088B0F10A01C9B2DFF830040078FEF79D
S11348F0D4F9DFF82C14086004E0DFF824045FF036
S11349007C510160DFF8F4030078002801D0FEF741
S1134910A8FAFEF709FCFFF76DFAFEF7F5FFDFF8DA
S1134920D00300780028FAD152E70000ED56FF1FAB
S11349305B04FF1FB856FF1FD556FF1FDE56FF1F2F
S11349408056FF1F72B6DFF8DC0300788006FAD5C4
S1134950DFF8D4030078C0B2312804D1DFF8CC03E7
S11349600121017029E0C0B2322804D1DFF8BC0370
S11349700221017021E0C0B2332804D1DFF8AC0376
S11349800321017019E0B0F14001C9B2022914D227
S1134990C0B24038002802D0012805D009E0DFF871
S11349A08C037321017008E0DFF88003702101702B
S11349B003E0DFF87C036421018062B670470000E5
S11349C0BC56FF1FAC56FF1FE156FF1FE056FF1FEA
S11349D0DF56FF1FE256FF1FE456FF1F00350C0091
S11349E080F00F4090F00F40F356FF1FEF56FF1F6B
S11349F0F056FF1FEE56FF1FF256FF1F10B5DFF8EB
S1134A003403006850F08070DFF828130860B7485A
S1134A100078002822D1DFF820030088401CC64912
S1134A200880B1480078AF490968090D11F0010107
S1134A30884261D0AB480068000D10F00100AA491B
S1134A400870AA4801210170BC4800210170BA48CD
S1134A5000210180A648002101704DE0A3480078A0
S1134A6001280CD1B4480088401CB3490880B248DE
S1134A7000881B2840D39D48022101703CE09B48DC
S1134A800078022838D1AC480088401CAA49088024
S1134A90A9480088032190FBF1F201FB12000028D1
S1134AA020D1002414E0A4B2962C10D3A4B2A348BD
S1134AB000789F21904A01FB00202018A049096832
S1134AC000F8961C0320FFF76DF800BF00BF641CBC
S1134AD040F23510A4B28442E5D398480078401CD3
S1134AE09649087095480078412805D180480121ED
S1134AF001707E48002101708F4800882D2190FBB1
S1134B00F1F201FB12002A2840F0A6808D488E495C
S1134B10096801808D480068400840008B4908609E
S1134B208A48006850F00100884908607848007895
S1134B30002827D0864800880B2823D38148008882
S1134B40122807D383484FF416710160824800216C
S1134B5001600CE07B480088122808D27D480021BF
S1134B6001607D48002101607C48012101707B487F
S1134B700078002870D07748002101607648002131
S1134B80016069E076480078002803D075487649CA
S1134B90098801807348B0F900006A49B1F900102E
S1134BA0401A7249088062480088714909786F4A3E
S1134BB0B2F900206F4BB3F90030D21A6E4B1B7858
S1134BC06A4CB4F90040634302FB01310A2291FBB1
S1134BD0F2F1081856490880684800885449B1F928
S1134BE00010884204DA52486449B1F90010018087
S1134BF04F48B0F9000062490988884204DA4C48F9
S1134C005F49B1F9001001805848B0F9000010283C
S1134C1007DB5048002101604F484FF443710160A5
S1134C2016E05248B0F900007FF00C01884207DA20
S1134C30484840F2B631016047480021016007E06E
S1134C4044480021016044483949B1F90010016029
S1134C50484846490988018010BD0000F156FF1FED
S1134C60AE04FF1FE956FF1F9804FF1F5A04FF1FDD
S1134C709E04FF1FA004FF1FA204FF1FA404FF1F24
S1134C80AE56FF1FB056FF1FB256FF1F50A0044080
S1134C9000D0044004D0044008D004400CD00440A8
S1134CA010D0044014D0044018D004401CD0044058
S1134CB014F10F4054F00F4018C004401CC00440CD
S1134CC020C0044024C0044028C004402CC0044038
S1134CD030C0044034C00440D4F00F40AD04FF1F82
S1134CE0005A620250F00F40D056FF1FD256FF1FE9
S1134CF0D156FF1FB004FF1F102DFF1FEC56FF1FDE
S1134D009856FF1FA804FF1FAC04FF1FCE56FF1FB9
S1134D10E756FF1FDD56FF1F8456FF1FDC56FF1F9B
S1134D208856FF1F04A0064007A00640E656FF1F52
S1134D30AC56FF1F58A004409C56FF1FD356FF1FBC
S1134D4010F10F40A456FF1F0C0004400000044063
S1134D50A856FF1F1090034018900340E856FF1F09
S1134D60E456FF1FB656FF1F6204FF1FAA56FF1F1B
S1134D708804FF1FA656FF1F8904FF1F9004FF1F0E
S1134D809204FF1F4FF0807C1CEB400F94BF1CEB80
S1134D90410F05E040EA010C5FEA4C0C01D281426C
S1134DA0704718BF88427047002840F10980F446D4
S1134DB0404200F005F850F000406047002800BF72
S1134DC00AD0B0FA80F18840D1F19D01C9050206EC
S1134DD072F1004241EB1020704750F8041B61B19E
S1134DE050F8042BD30744BFA9F101039A180023F8
S1134DF042F8043B091FFAD1EFE7704790EA010F2C
S1134E0044BF81F0004100F0BBBF00BF421A3CBF69
S1134E10801A89184FF0004CC0F3C752FF2A24D0DF
S1134E20C1F3C75313B3D21AD2F1190327DD4CEAE5
S1134E3001214CFA03F321EA0303D140C20D4CEAE9
S1134E400020401834BF20EA0C004CEA5000D20580
S1134E5053EA006373EB0C0C52EB1020420012F186
S1134E60807F38BF7047C00DC0057047490212BF2C
S1134E709A4200EB5120F8E7D2F11703D9D57047D5
S1134E804FF0807C1CEB400F94BF1CEB410F05E0FE
S1134E9040EA010C5FEA4C0C01D28842704718BF0B
S1134EA08142704710B5FF2313EAD0541DBF13EAA3
S1134EB0D1529C429A4239E0A41ADA0780EA0103EB
S1134EC0134042EA012142EA0020421A3CBF641E18
S1134ED001EB4202090AB2FBF1FE01FB1E2212029F
S1134EE0B2FBF1F001FB10226EF30F201202B2FBB1
S1134EF0F1FE4EEA00207F3406DDFE2C24DA53EA6C
S1134F00500050EBC45010BDD4F1020401FB1E222A
S1134F1040F08071192C1DDC21FA04F0C4F1200446
S1134F20A140114371F10042584110BD9C421ABF87
S1134F3003EAD1529A420FE080EA010E0EF00043D8
S1134F40400004D0490016D143F0FF4010BD490091
S1134F5008BFD343180010BD9C4205D1D21AF7D024
S1134F6001F00041484010BD4A0212BF08464840C3
S1134F7000F0004010BD4AB90902B1FA81F2914033
S1134F8044B1A418C00140F000409EE7C90141F0BB
S1134F90004152420002B0FA80F4A040141B94E78E
S1134FA0FF2212EAD05C1DBF12EAD153944593420A
S1134FB02BE09C44D30780EA01021A4043EA002014
S1134FC043EA0121A1FB0030410038BF40007CF1DD
S1134FD07F010BDBFE294ADA5B0842EAC15153EA3E
S1134FE0006373F1004C51EB10207047D1F1080CB1
S1134FF0DCF120012FDB5B0810FA01F10B4373F1A4
S1135000004120FA0CF05041704794451CBF02EA5D
S1135010D153934280EA010202F000421DD04000C5
S113502019D0490017D05BB9634514D00902B1FA0D
S113503081F39940BCEB030CC00140F00040C1E790
S11350400002B0FA80FC10FA0CF0B3EB0C0CC901AE
S113505041F00041B6E71000704740000AD0490013
S113506008D010F1807F94BF11F1807F02E042F0FC
S1135070FF407047D04370475FF0FF0C1CEAD051EB
S113508014BF614506E0C110400721F0E04101F181
S11350906051704779B900F0004100020AD0B0FABB
S11350A080FC00FA0CF001F16051A1EB0C5101EB12
S11350B0D0214005704741020CBF40F4E0016FF07D
S11350C0000100207047704740F2FF7C0B0D4DD06B
S11350D0634566D230B421EA035141F4801103F2EE
S11350E0FD3C5FEA5C0C01D300184941890041EAA8
S11350F0907180004FF440140023E202D50AB1F508
S1135100100107D46D081DD2091B64190018494108
S1135110491BF7D56D080AD20919641B00184941C7
S1135120491BEFD56D08F7D301E0520817D0C0181A
S113513061419B1AAC4100184941801AA941F4D439
S113514052080AD0C01AA1419B186C410018494169
S1135150801AA941E9D45208F4D15B1C6C4161085E
S11351604FEA330001EB0C5130BC704750EA0103A5
S1135170FBD030B4B1FA81F311B9B0FA80F41B1941
S11351800B3BB3F120042FBF00FA04F19940C3F1A3
S1135190200420FA04F438BF21439840D3F10103DA
S11351A09DE76345E1D011F5801FDED850EA410147
S11351B0DBD0D94300F050BEF0B540F2FF7581EA70
S11351C0030C0CF0004C15EA11541DBF15EA1357DB
S11351D0AC42AF42E5E0BC41C1F31301C3F3130396
S11351E0801A994143F4801304D2641E400049415B
S11351F080185941C90241EA5051B1FBF3F603FB4F
S11352001611A2FB0675D7EBC020A94102D2761E67
S113521080185941C90241EA5051B1FBF3FE03FB26
S11352201E11A2FB0E75D7EBC020A94103D2AEF12B
S1135230010E80185941890241EA9051760546EAE7
S11352408E2EB1FBF3F603FB1611A2FB0675D7EB0A
S11352508020A94102D2761E80185941C90241EA30
S113526050514EEA060EB1FBF3F603FB1611A2FBF6
S11352700675D7EBC020A94102D2761E8018594189
S1135280C90241EA5051B1FBF3F703FB1711A2FB2A
S11352900735D3EBC020A94167F100070CBF0042DA
S11352A047F0010766F3D5274FEA1E31B80814F515
S11352B0806412DDBD0775F1004250EB0E5051EBD6
S11352C0045111F5801F5CBF41EA0C01F0BD4CF0A4
S11352D07F6141F0E0410020F0BDBD076D0840EA68
S11352E00E5041F48011D4F10104B4F120060ADA1D
S11352F0C4F120060200E04001FA06F3E14018433D
S1135300B24015430EE0342C13DCC6F1200445EA08
S113531040056D0820FA06F2154321FA06F0A14073
S11353200D43002175F1004250F1000051EB0C01D6
S1135330F0BD00205FEA0C01F0BDCFB992185B41CB
S1135340B3FA83F704BFB2FA82F6BF190B3FB7F181
S113535020062FBF02FA06F3BB40C7F1200622FA4B
S113536006F638BF3343BA401CB1E419641E33E770
S11353707F4231F00041B1FA81F404BFB0FA80F603
S1135380A4190B3CB4F120062FBF00FA06F1A1408A
S1135390C4F1200620FA06F638BF3143A0403C1B76
S11353A01AE7AC421ABF05EA1357AF4212E050EABB
S11353B041061CBF52EA4306BFE750EA41073046A4
S11353C061461CBF41EA0551F0BD52EA430C08BFD7
S11353D0C143F0BD00204FF4001616EB410F98BFF7
S11353E016EB430F08BF16EB410F24BFC14305E082
S11353F016EB430F0CBF61464CEA0551F0BD0000AB
S1135400010040F10780F446404200F003F851F0F7
S11354100041604709D0B0FA80F18840C91CC1F549
S11354208461090501EBD02140057047B0B581EADC
S1135430030C0CF0004C40F2FF7515EA11541DBF2B
S113544015EA1357AC42AF4239E0E41923EA455355
S113545043F48013C90241F0004141EA505EC7029F
S11354601100A7FB020200284FF00000EEFB012010
S11354704FF00001E3FB072118BF42F0010240187E
S113548000214941E3FB0E01A4F580640F0302D21D
S113549052004041494154F101046CDD470872F166
S11354A0004250F1000051EB0451A1F580115CBFA2
S11354B041EA0C01B0BD4CEA05510020B0BD05EA3B
S11354C01357AC4214BFAF4241E050EA410E1CBF37
S11354D052EA430E02E061460020B0BD24423C443F
S11354E01BD15FEA070EF6D0090302BF0146002074
S11354F0AEF1140EB1FA81F7AEEB070401FA07FE20
S11355000C37C7F1200100FA07F7C8404EEA000E35
S113551023EA455343F48013A2E733F00043B3FA7C
S113552083F704BFB2FA82FE77440B3FE41BB7F162
S1135530200E2FBF02FA0EF3BB40C7F1200E22FA51
S11355400EFE38BF43EA0E03BA40641C82E750EAF9
S1135550410E14BF52EA430E6FF000014FF40017DE
S113556017EB430F8ABF194617EB410FB5E74CEA17
S113557005510020B0BDD4F10104B4F120070FDAC5
S1135580C4F12007520828BF42F0010210FA07F5BF
S113559001FA07F7E1BF2A43E0403843E1400FE056
S11355A0352C98DCC7F1200452EA400220FA07F2B5
S11355B018BF42F0010231FA07F0A1400A4300216A
S11355C072F1004250F1000051EB0C01B0BD00003B
S11355D04FEAF17CBCF1E04C2CBFBCF5001F11E09C
S11355E05FEA4C0C34BFBCF17F5F2EE05FEA9C0C99
S11355F04FEA0C1C4FEA3C0CC10071F100414CEB2A
S113560050707047C90241EA5051C00218BF41F0BE
S1135610010141F000414FEA6C50C0F1090021281A
S113562010D240EACC7CCCF1200C11FA0CF070F1D1
S11356300040CCF1200C21FA0CF00CF0004C40EBB3
S11356400C0070474FEACC707047490011F5001FF9
S113565004D84FEACC10FF30C0057047C817704714
S113566040EA010C5FEA4C0C07D0884205D14FEAAE
S1135670400C1CF1807F98BF8042704780B5DFF8F2
S1135680F405006840F203110843DFF8E8150860E8
S1135690DFF8E405006840F203110843DFF8D81589
S11356A00860DFF8D805006840F203110843DFF80A
S11356B0CC150860DFF8C805006840F20311084300
S11356C0DFF8BC150860DFF8BC05006840F2031180
S11356D00843DFF8B0150860DFF8AC05006840F255
S11356E003110843DFF8A0150860DFF8A00500687F
S11356F040F203110843DFF894150860DFF89005C1
S1135700006840F203110843DFF884150860DFF8ED
S113571084057FF47F410160DFF87C0500684FF465
S113572080710843DFF870150860DFF870050068C1
S11357304FF480710843DFF864150860DFF86005F2
S113574000684FF480710843DFF854150860DFF8EF
S1135750540500684FF480710843DFF84815086069
S1135760DFF844055FF470310160DFF8400500683C
S113577050F48040DFF834150860DFF83005006825
S113578030F48030DFF824150860282000F0F4F8A5
S1135790DFF81805006850F48030DFF81015086051
S11357A001BD00000821DFF80425126852F400321C
S11357B0DFF8F8341A6000BFDFF8F024126832F41E
S11357C08042DFF8E8341A6000BF19E0DFF8DC2417
S11357D0126832F40042DFF8D4341A60DFF8CC24C3
S11357E0126852F48042DFF8C4341A6000BFDFF854
S11357F0BC24126832F48042DFF8B0341A604000EE
S11358000A00511ED2B2002A0AD00206DED5DFF801
S11358109C24126852F40042DFF890341A60DDE7E9
S1135820704700000821DFF88424126832F4003243
S1135830DFF878341A60DFF87424126832F4804296
S1135840DFF868341A6019E0DFF86024126832F473
S11358500042DFF858341A60DFF85024126852F41A
S11358608042DFF848341A6000BFDFF84024126831
S113587032F48042DFF834341A6040000A00511ECA
S1135880D2B2002A0AD00206DED5DFF8202412683C
S113589052F40042DFF814341A60DDE7704710B5A3
S11358A00400B1F15000C0B2FFF7BCFFE4B220091C
S11358B050F01000C0B2FFF7B5FF14F00F0050F025
S11358C00100C0B2FFF7AEFF10BD70B504000025A3
S11358D008E02000C0B2FFF765FF761CF6B2802E08
S11358E0F7D36D1CEDB2082D0CD2B5F15000C0B247
S11358F0FFF798FF0120FFF795FF1020FFF792FFB5
S11359000026EBE770BD38B5002407E00020FFF760
S113591049FF6D1CEDB2802DF8D3641CE4B2082C51
S11359200CD2B4F15000C0B2FFF77CFF0120FFF7A6
S113593079FF1020FFF776FF0025EBE731BD38B57E
S113594004000D00B5F15000C0B2FFF76BFF012059
S1135950FFF768FF1020FFF765FF2900C9B2200098
S1135960C0B2FFF79CFF03E00020FFF71BFF641C9D
S1135970E4B2802CF8D331BD07E044F620610A007C
S1135980511E92B2002AFAD1401E80B20028F4D1EE
S1135990704780B5AE20FFF745FF0020FFF742FFB8
S11359A01020FFF73FFF4020FFF73CFF8120FFF767
S11359B039FFCF20FFF736FFA120FFF733FFC820C0
S11359C0FFF730FFA620FFF72DFFA820FFF72AFFDF
S11359D03F20FFF727FFD320FFF724FF0020FFF726
S11359E021FFD520FFF71EFF8020FFF71BFFD920E2
S11359F0FFF718FFF120FFF715FFDA20FFF712FF7A
S1135A001220FFF70FFFDB20FFF70CFF4020FFF70A
S1135A1009FF2020FFF706FF0220FFF703FF8D2078
S1135A20FFF700FF1420FFF7FDFEA420FFF7FAFEA6
S1135A30A620FFF7F7FEAF20FFF7F4FE0020FFF7E4
S1135A4044FF00210020FFF72AFF01BD38B5B2F161
S1135A502005C0B27F2801D30020491CC9B2C0B2BE
S1135A60FFF71DFF00240AE0E4B2EDB20620DFF8E0
S1135A70401200FB0510205CFFF794FE641CE4B2A6
S1135A80062CF1D331BD2DE9F84304000D001600B6
S1135A9000275FF000085FF0000915E05FFA88F85E
S1135AA0FFB20620DFF8081200FB071018F8000008
S1135AB0FFF778FE18F101085FFA88F8B8F1060FCD
S1135AC0ECD3A41D19F101095FFA89F919F806004C
S1135AD0002813D05FFA89F919F80600B0F12007FD
S1135AE0E4B27F2C01D300246D1C2900C9B220002C
S1135AF0C0B2FFF7D4FE5FF00008DDE7BDE8F18334
S1135B002DE9F04385B006000C009146002700AD56
S1135B1048460021FFF7B4F90DD22D208DF800007E
S1135B209DF800202100C9B23000C0B2FFF78EFFFB
S1135B30B61D99F00049484600F094F98046404665
S1135B40FFF732F90100484600F012F94FF47A7178
S1135B5088450EDB4FF47A7198FBF1F13031FFB2D6
S1135B6000AAB9544FF47A7198FBF1F201FB128840
S1135B707F1CB8F1640F0DDB642198FBF1F1303127
S1135B80FFB200AAB954642198FBF1F201FB128818
S1135B907F1C0AE0B8F1640F07DAFFB2002F04D0CB
S1135BA0FFB200A930227A547F1CB8F10A0F0DDB32
S1135BB00A2198FBF1F13031FFB200AAB9540A214D
S1135BC098FBF1F201FB12887F1C0AE0B8F10A0F7E
S1135BD007DAFFB2002F04D0FFB200A930227A54B2
S1135BE07F1CFFB200A918F130027A543149FFF743
S1135BF0C9F830D87F1CFFB200A92E227A547F1C2A
S1135C002D49FFF7CDF900F02DF98046642098FB6B
S1135C10F0F03030FFB200A97854642098FBF0F122
S1135C2000FB11887F1CB8F1010F0BDB0A2098FBE5
S1135C30F0F03030FFB200A978540A2098FBF0F15C
S1135C4000FB1188B8F1000F05D47F1CFFB200A837
S1135C5018F1300139547F1CFFB200A800213954D7
S1135C602A002100C9B23000C0B2FFF70CFF05B012
S1135C70BDE8F08320B0044024B0044028B00440C0
S1135C802CB0044030B0044034B0044038B0044078
S1135C903CB0044094F00F40389004403C900440E1
S1135CA0409004404490044014F00F4000F00F4032
S1135CB0B85E00006F12833A00007A4425490860F8
S1135CC070475C2800DB5B20202190FBF1F1002968
S1135CD003D0022929D014D33AE00121202290FBD9
S1135CE0F2F303FB120399401B4A116001212022A5
S1135CF090FBF2F303FB120311FA03F01749086057
S1135D0026E00121202290FBF2F303FB12039940C9
S1135D10134A11600121202290FBF2F303FB1203CA
S1135D2011FA03F00F49086012E00121202290FBD0
S1135D30F2F303FB120399400B4A11600121202264
S1135D4090FBF2F303FB120311FA03F00749086016
S1135D507047000008ED00E080E200E000E100E0B0
S1135D6084E200E004E100E088E200E008E100E011
S1135D7090EA010F44BF81F00041FFF747B800BF2C
S1135D80431A4FF000423EBF5340C01AC91800BF27
S1135D90D3095FEAD05C13EB400F34BFB3EB410F80
S1135DA040E07CEBD1530CD342EA012122D8D1EB61
S1135DB0402009D3400A28BF5FEA500140EBCC5091
S1135DC07047401A15D04002B0FA80F2521C90403D
S1135DD0400A4FEA3C23B3EB026384BF00EB730039
S1135DE007E040F400001A16DB07C2F10102D040BC
S1135DF018437047182BFCDC31FA03F202FA03F360
S1135E00591A38BF42F00102D2EB40203CBF400097
S1135E10ACF1010C5FEACC5CC20572F100414CEBC1
S1135E205020704713EB400F0FD24B0009D0ACEB5E
S1135E30D153022B03DB4902172BDDDD704791435D
S1135E40401A4300D5D10020704713EB410FD0D343
S1135E506FF00000704700001FB500F025F8212105
S1135E6001601FBD4100090E7F3915D4D1F11F0116
S1135E7014D4400007D2C00140F00040C84048BFDD
S1135E806FF000407047C00140F00040C8404CBF74
S1135E904FF00040404270470020704700424FF0EE
S1135EA0004058BFC0437047014800F003B80000E9
S1135EB0F856FF1F704700000000000000000000BB
S1135EC0002F000000000700070000147F147F1457
S1135ED000242A7F2A1200626408132300364955DD
S1135EE0225000000503000000001C2241000000B5
S1135EF041221C000014083E08140008083E08084B
