S01700004C515F4B36305F746573745F706C6C2E737265639A
S3151FFF0000F8FF00201104FF1FB739FF1FB739FF1F66
S3151FFF0010B739FF1FB739FF1FB739FF1FB739FF1F84
S3151FFF0020B739FF1FB739FF1FB739FF1FB739FF1F74
S3151FFF0030B739FF1FB739FF1FB739FF1FB739FF1F64
S3151FFF0040B739FF1FB739FF1FB739FF1FB739FF1F54
S3151FFF0050B739FF1FB739FF1FB739FF1FB739FF1F44
S3151FFF0060B739FF1FB739FF1FB739FF1FB739FF1F34
S3151FFF0070B739FF1FB739FF1FB739FF1FB739FF1F24
S3151FFF0080B739FF1FB739FF1FB739FF1FB739FF1F14
S3151FFF0090B739FF1FB739FF1FB739FF1FB739FF1F04
S3151FFF00A0B739FF1FB739FF1FB739FF1FB739FF1FF4
S3151FFF00B0B739FF1FB739FF1FB739FF1FB739FF1FE4
S3151FFF00C0B739FF1FB739FF1FB739FF1FB739FF1FD4
S3151FFF00D0B739FF1FB739FF1FB739FF1FB739FF1FC4
S3151FFF00E0B739FF1FB739FF1FB739FF1FB739FF1FB4
S3151FFF00F0B739FF1F1D2DFF1FB739FF1FB739FF1F4A
S3151FFF0100B739FF1FB739FF1FB739FF1FB739FF1F93
S3151FFF0110B739FF1FB739FF1FB739FF1FB739FF1F83
S3151FFF0120B739FF1FB739FF1FB739FF1FB739FF1F73
S3151FFF0130B739FF1FB739FF1FB739FF1FB739FF1F63
S3151FFF0140B739FF1FB739FF1FB739FF1FB739FF1F53
S3151FFF0150B739FF1FB739FF1FB739FF1FB739FF1F43
S3151FFF0160B739FF1FB739FF1FB739FF1FB739FF1F33
S3151FFF0170B739FF1FB739FF1FB739FF1FB739FF1F23
S3151FFF0180B739FF1FB739FF1FB739FF1FB739FF1F13
S3151FFF0190B739FF1FB739FF1FB739FF1FB739FF1F03
S3151FFF01A0B739FF1FB92DFF1FB739FF1FB739FF1FFD
S3151FFF01B0B739FF1FB739FF1FB739FF1FB739FF1FE3
S3151FFF01C0B739FF1FB739FF1FB739FF1FB739FF1FD3
S3151FFF01D0B739FF1FB739FF1FB739FF1FB739FF1FC3
S3151FFF01E0B739FF1FB739FF1FB739FF1FB739FF1FB3
S3151FFF0400FFFFFFFFFFFFFFFFFFFFFFFFFEFFFFFFD9
S3151FFF04104FF000004FF000014FF000024FF00003B6
S3151FFF04204FF000044FF000054FF000064FF0000796
S3151FFF04304FF000084FF000094FF0000A4FF0000B76
S3151FFF04404FF0000C62B603F0A9FDFEE710B40020C3
S3151FFF045012E000B2DFF8F017002221F8102000B2D9
S3151FFF0460DFF8E817002221F8102000B2DFF8E017A7
S3151FFF0470002221F81020401C00B24128E9DB1C2076
S3151FFF048016E009B200B2A122DFF8C83702FB00321D
S3151FFF04908A1809B200B2A123DFF8B84703FB00434E
S3151FFF04A0CB5C02F8023C491C09B2A129E9DB401CBF
S3151FFF04B000B22A2801DA0221F6E710BC7047DFF8DF
S3151FFF04C09807006850F40060DFF88C170860DFF8A4
S3151FFF04D08C07006830F4E060DFF880170860DFF8EC
S3151FFF04E07C07006850F48060DFF870170860DFF83C
S3151FFF04F06C07006850F00200DFF860170860DFF82E
S3151FFF05005C07006840084000DFF850170860DFF8F7
S3151FFF05104807006850F00100DFF83C170860DFF856
S3151FFF05204007006830F03000DFF834170860DFF847
S3151FFF05303007006850F02200DFF824170860DFF845
S3151FFF05402007006850F00400DFF814170860DFF873
S3151FFF05501007006830F00800DFF804170860DFF89F
S3151FFF05600407006850F00400DFF8F8160860DFF88C
S3151FFF0570F006006850F00100DFF8E41608607047C8
S3151FFF0580DFF8D406006850F40060DFF8CC16086069
S3151FFF0590DFF8D4064FF480710160DFF8D0060068DC
S3151FFF05A030F00800DFF8C4160860DFF8BC060068E5
S3151FFF05B050F00300DFF8B0160860DFF8AC060068DE
S3151FFF05C050F41020DFF8A0160860704710B4DFF84C
S3151FFF05D0A0064FF49641DFF88026126852F4806218
S3151FFF05E0DFF874361A60DFF88C2612684FF44073F3
S3151FFF05F01A43DFF880361A60DFF87C2612684FF43D
S3151FFF060040731A43DFF870361A60DFF870261268D8
S3151FFF061052F48062DFF864361A604FF47A7202FB77
S3151FFF062000F20B01B2FBF3F292B2131213F01F0388
S3151FFF0630DFF84C462370DFF84C361A704FF4FA4337
S3151FFF064058430901B0FBF1F092B2B0EB421010F024
S3151FFF06501F00DFF834160870DFF83006007850F0F9
S3151FFF06600C00DFF828160870DFF82406002101703A
S3151FFF0670DFF81806007850F02000DFF81016087014
S3151FFF068010BC7047DFF8D005006850F40060DFF834
S3151FFF0690C8150860DFF8C00500684FF400710843EE
S3151FFF06A0DFF8B4150860DFF8EC05006830F4E0608A
S3151FFF06B0DFF8E0150860DFF8E005006830F4E0605A
S3151FFF06C0DFF8D4150860DFF8D405006830F4E06062
S3151FFF06D0DFF8C8150860DFF8C805006830F4E0606A
S3151FFF06E0DFF8BC150860DFF8AC054FF480610160C9
S3151FFF06F0DFF8AC054FF440710160DFF89C054FF43E
S3151FFF070040710160DFF894054FF440710160DFF817
S3151FFF07109405006850F08070DFF888150860DFF8D1
S3151FFF07208405006850F00070DFF878150860DFF861
S3151FFF07307805006850F08070DFF86C150860DFF8E9
S3151FFF07406C05006850F02800DFF860150860DFF8B9
S3151FFF07506005006850F02800DFF854150860DFF8C1
S3151FFF07605405006850F02800DFF848150860DFF8C9
S3151FFF07704805006850F02800DFF83C150860DFF8D1
S3151FFF07803C0500210160DFF8380500210160DFF815
S3151FFF0790340500210160DFF830054FF47A710160DF
S3151FFF07A0DFF8280540F62B410160DFF824050221FB
S3151FFF07B00160DFF8200500210160DFF81C0500211D
S3151FFF07C00160DFF8180500210160DFF81405DFF867
S3151FFF07D0141509880160DFF8100500210160DFF895
S3151FFF07E00C0500210160DFF8080501210160DFF814
S3151FFF07F00405006850F00E00DFF8F8140860DFF8F4
S3151FFF0800F804006850F00A00DFF8EC140860DFF800
S3151FFF0810EC04006850F00A00DFF8E0140860704728
S3151FFF0820DFF83404006850F47850DFF82C140860A2
S3151FFF0830DFF8CC0400210170DFF84004006850F098
S3151FFF08408050DFF838140860DFF8B804007850F0DE
S3151FFF08508000DFF8B0140870DFF8AC049821017030
S3151FFF0860DFF8A8040078C006FAD4DFF8A0040078E2
S3151FFF0870C0F38100C0B20228F7D1DFF894040E211E
S3151FFF08800170DFF8900400210170DFF88C04006807
S3151FFF0890DFF88414096851F47F01DFF87C241160A7
S3151FFF08A0DFF87814DFF878240A60DFF86C14086025
S3151FFF08B0DFF860045E210170DFF8500400788006C0
S3151FFF08C0FAD5DFF8480400784006FAD5DFF8380472
S3151FFF08D0007810F03F00DFF830140870DFF82C04A3
S3151FFF08E00078C0F38100C0B20328F7D1DFF83404C4
S3151FFF08F0006850F48050DFF82C140860DFF82804D6
S3151FFF09004FF4E0610160DFF82404006850F0010036
S3151FFF0910DFF818140860D4484FF4A06101607047D0
S3151FFF0920002801D54042FFE7704700B2002802D5D5
S3151FFF093000B24042FFE700B2704770B500240025A2
S3151FFF09400026DFF8D00D00210160DFF8CC0D002156
S3151FFF09500170DFF8C80D00210170DFF8C40D0021FB
S3151FFF096001600020040000E0641C412C5ADA0025B8
S3151FFF097027E0681E9F2823D2A120B64900FB04103B
S3151FFF0980281810F8010CA121B24A01FB042169188E
S3151FFF0990497851FA80F6B6B27608A120AD4900FB19
S3151FFF09A00410285C301A00B2FFF7BFFFDFF8741D73
S3151FFF09B00968814204DAA120A64900FB04102E54C0
S3151FFF09C06D1CA12DD0DA002D01D0A02DD1D1601E17
S3151FFF09D03F28CED2012CCCDBA1209E4900FB041061
S3151FFF09E0281810F8A10CA1219A4A01FB04216918A6
S3151FFF09F091F8A11051FA80F6B6B27608A120954953
S3151FFF0A0000FB0410285C301A00B2FFF78EFFDFF8D9
S3151FFF0A10141D09688142D3DAA1208E4900FB0410F9
S3151FFF0A202E54CDE7DFF8000D00210170DFF8FC0C17
S3151FFF0A3000210170DFF8F80CDFF8D81C0968017078
S3151FFF0A40502500E06D1EDFF8E80C0078A121814AD2
S3151FFF0A5001FB0020285CDFF8D81C0978A1227D4BFB
S3151FFF0A6002FB0131691811F8021C401ADFF8B41C8A
S3151FFF0A700968884201DA022DE4DA022D00DA002521
S3151FFF0A80DFF8A40C0570502500E06D1CDFF8A00CE5
S3151FFF0A900078A1216F4A01FB0020285CDFF8901C1C
S3151FFF0AA00978A1226B4B02FB013169188978401A1D
S3151FFF0AB0DFF8701C0968884201DA9F2DE5DB9F2D41
S3151FFF0AC000DBA025DFF8640C0570DFF85C0C0078EF
S3151FFF0AD0DFF8581C09780818022190FBF1F0DFF8A0
S3151FFF0AE0501C09785A4A22F81100DFF8440C007887
S3151FFF0AF05549DFF8342C127821F81020DFF8300C17
S3151FFF0B0000785249DFF8242C127821F81020DFF8DD
S3151FFF0B101C0C0078DFF8101C0978401A152862DBB9
S3151FFF0B20DFF8080C0078DFF8001C0978401ADFF899
S3151FFF0B30001C0978DFF8FC2B32F811100F318842A1
S3151FFF0B4051DADFF8D80B0078401CDFF8D01B08708E
S3151FFF0B50DFF8C00B0068401CDFF8B81B0860DFF822
S3151FFF0B60BC0B0078032834D3DFF8A80B006838497D
S3151FFF0B7011EB400030F9020CDFF8981B0968344A65
S3151FFF0B8012EB410131F9041C401AFFF7C9FE142865
S3151FFF0B901FDADFF8800B00682D4911EB400030F993
S3151FFF0BA0040CDFF8701B0968294A12EB410131F962
S3151FFF0BB0061C401AFFF7B4FE14280ADADFF8580B93
S3151FFF0BC001210170DFF84C0B0068C01EDFF8441BC4
S3151FFF0BD00860DFF8440B007800283FF423AFDFF8E7
S3151FFF0BE0340B04681FE0DFF8340B00210170DFF8B8
S3151FFF0BF0240B0068401CDFF81C1B0860DFF8140B72
S3151FFF0C0000684028ABDBDFF80C0B0021016019E001
S3151FFF0C10DFF80C0B00680E4931F914104018DFF886
S3151FFF0C20001B0860641CDFF8EC0A0068C01C8442C6
S3151FFF0C30EEDBDFF8EC0A0068032190FBF1F0DFF82B
S3151FFF0C40E01A086070BD0000646BFF1FE86BFF1F93
S3151FFF0C506C6CFF1F8042FF1F3880044014B0044096
S3151FFF0C6000000440040004400CB0044094F00F4001
S3151FFF0C7020BF020040A0044044A00440348004402B
S3151FFF0C8000A0064001A006400AA0064003A006409A
S3151FFF0C9002A0064010B00440309004403490044038
S3151FFF0CA0289004403C800440308004402480034049
S3151FFF0CB00C900340149003400C800B4004800340AC
S3151FFF0CC00490034004800B400890034008800340B4
S3151FFF0CD008800B404C8003404C9003404C800B40D8
S3151FFF0CE0288003406C42FF1F10900340189003405B
S3151FFF0CF010800B40008003400090034000800B4094
S3151FFF0D000140064008C00740004006400640064017
S3151FFF0D10044006400540064000F001404480044061
S3151FFF0D2000002702048004401890044040800440BE
S3151FFF0D302DE9F04100260027002400200025002171
S3151FFF0D400022DFF8343D5FF0000C83F800C0DFF8A8
S3151FFF0D502C3D5FF0000C83F800C0DFF8243D5FF0E9
S3151FFF0D60000C83F800C0DFF81C3D5FF0000C83F812
S3151FFF0D7000C0DFF8143D5FF0000C83F800C0DFF8FA
S3151FFF0D800C3D5FF0000C83F800C0DFF8043D5FF0F9
S3151FFF0D90400CC3F800C0DFF8FC3C5FF0400CC3F803
S3151FFF0DA000C0DFF8F43C5FF0400CC3F800C0DFF86B
S3151FFF0DB064391B68DB1C1E000DE024B2DFF8DC0C58
S3151FFF0DC030F91400A12805DB24B2DFF8D00CA021CF
S3151FFF0DD020F81410761C36B2412E80F29884DFF865
S3151FFF0DE0A00C0078002804D1DFF8B40C0A2101609B
S3151FFF0DF015E036B2DFF8AC0C10EB460030F9020CEB
S3151FFF0E0036B2DFF8981C11EB460131F9021C401A66
S3151FFF0E10022190FBF1F0C0B2DFF8841C086036B2E6
S3151FFF0E20DFF8780C10EB460030F8020CDFF8701C69
S3151FFF0E3009680F183FB2A12F00DBA02736B2DFF8D4
S3151FFF0E405C0C10EB460030F8020CDFF8541C0968E7
S3151FFF0E50081836B2DFF8441C21F8160036B2DFF841
S3151FFF0E603C0C30F91600A12842DB36B2DFF82C0CFA
S3151FFF0E70A02120F816103BE0DFF8A80800683FB254
S3151FFF0E8036B2A121DFF8B02801FB0621795C3FB2FC
S3151FFF0E9036B2A122DFF8A03802FB0632BA1812F8C3
S3151FFF0EA0022C891A884222DA36B2DFF8F00B10EBD2
S3151FFF0EB0460030F8020C381A00B2FFF736FD80469F
S3151FFF0EC036B2DFF8D80B30F8160036B2DFF8CC1B78
S3151FFF0ED011EB460131F8021C401A00B2FFF725FD40
S3151FFF0EE0804504DA36B2DFF8B40B20F816707F1E82
S3151FFF0EF03FB2012F0DDB36B2DFF8A00B10EB46001A
S3151FFF0F0030F9020CDFF8981B0968401A3FB2B84246
S3151FFF0F10B2DB36B2DFF8840B30F91600022810DA7F
S3151FFF0F2036B2DFF8780B002120F81610DFF85C0BBE
S3151FFF0F300078002840F03081DFF8640B0A2101603A
S3151FFF0F4040E136B2DFF8540B30F9160036B2DFF840
S3151FFF0F504C1B11EB460131F9021CDFF8442B1268BB
S3151FFF0F6002FA81F1884240F0A48036B2062EC0F203
S3151FFF0F709380DFF80C0B007800282CD136B2DFF8F0
S3151FFF0F801C0B10EB460030F9040C36B2DFF80C1BB6
S3151FFF0F9011EB460131F9061C01FA80F136B2DFF873
S3151FFF0FA0FC0A10EB460030F90A0C36B2DFF8EC2AC2
S3151FFF0FB012EB460232F90C2C02FA80F2881A06212E
S3151FFF0FC090FBF1F5DFF8B80A012101703000401ED2
S3151FFF0FD0DFF8A41A087036B2DFF8C00A10EB460016
S3151FFF0FE030F8020C281836B2DFF8B01A21F81600AF
S3151FFF0FF0DFF8A00A0068402898D15FF0FF3000E0B5
S3151FFF1000401C36B2DFF89C1A11EB460131F9021C60
S3151FFF101036B2DFF8882A12EB460232F9022C891AFA
S3151FFF1020022291FBF2F101FA87F100FA86F2A12360
S3151FFF1030DFF804C703FB02C2891811F8A11C36B2D9
S3151FFF1040DFF8602A12EB460232F9022C36B2DFF8BE
S3151FFF10504C3A13EB460333F9023CD21A022392FB97
S3151FFF1060F3F202FA87F200FA86F35FF0A10CDFF8BC
S3151FFF1070C8E60CFB03E3D25C891ADFF8A8261268C1
S3151FFF1080914201DA0528BBDB0528BFF64FAFDFF814
S3151FFF1090040A36B2066049E736B2DFF8000A10EBDC
S3151FFF10A0460030F8020C36B2DFF8F01921F81600A9
S3151FFF10B03CE7DFF8CC09007800283FF437AF36B29C
S3151FFF10C0DFF8D80930F8160036B2DFF8D01911EB62
S3151FFF10D0460131F8021C401A00B2FFF726FC04280E
S3151FFF10E0BFF624AFDFF894090670DFF894090021D5
S3151FFF10F00170DFF8840904780DE024B2DFF89C093C
S3151FFF110030F91400A12805DB24B2DFF89009A021CE
S3151FFF111020F81410641CDFF86409007800B224B2AB
S3151FFF1120A042FFF603AFDFF850090078DFF86C190E
S3151FFF113031F8100024B2DFF840190978611ADFF879
S3151FFF11403C291278DFF8543933F91220DFF8283992
S3151FFF11501B78DFF8487937F91330D21A5143DFF876
S3151FFF11601C291278DFF810391B78D21A91FBF2F17E
S3151FFF1170081824B2DFF8241921F8140024B2DFF867
S3151FFF11801C0930F914000028B7D524B2DFF80C0963
S3151FFF1190002120F81410BDE736B2DFF8080910EB5F
S3151FFF11A0460030F9020C36B2DFF8F01811EB460194
S3151FFF11B031F9021C401A022190FBF1F0C0B2DFF891
S3151FFF11C0E018086036B2DFF8DC0810EB460030F88F
S3151FFF11D0020CDFF8CC180968471A3FB2002F00D55B
S3151FFF11E0002736B2DFF8BC0810EB460030F8020CBA
S3151FFF11F0DFF8AC180968401A36B2DFF8A81821F8CD
S3151FFF1200160036B2DFF89C0830F91600002842D5C3
S3151FFF121036B2DFF89008002120F816103BE0DFF802
S3151FFF1220040500683FB236B2A121DFF80C2501FB8A
S3151FFF12300621791811F8021C3FB236B2A122DFF838
S3151FFF1240F83402FB0632BA5C891A884222DA36B2B2
S3151FFF1250DFF8500810EB460030F8020C381A00B2C0
S3151FFF1260FFF763FB804636B2DFF8380830F8160003
S3151FFF127036B2DFF8301811EB460131F8021C401A5F
S3151FFF128000B2FFF752FB804504DA36B2DFF81408C7
S3151FFF129020F816707F1C3FB2A02F0EDA3FB236B270
S3151FFF12A0DFF8000810EB460030F9020CDFF8F017E5
S3151FFF12B0096801FA80F08742B1DB36B2DFF8E4072F
S3151FFF12C030F916009F28C0F29D8036B2DFF8D4078B
S3151FFF12D0A02120F8161036B2DFF8C80730F916001E
S3151FFF12E036B2DFF8B81731F91610884209DA36B267
S3151FFF12F0DFF8A80736B2DFF8AC1731F8161020F85B
S3151FFF1300161036B2DFF89C0730F9160036B2DFF833
S3151FFF13108C1731F91610401A36B2DFF8881711EB02
S3151FFF1320460131F9021C401A36B2DFF8701711EB6E
S3151FFF1330460131F9021C00FA81F0042815DADFF89D
S3151FFF1340F0030078DFF8EC1331F810000F3036B2D8
S3151FFF1350DFF8501731F9161036B2DFF8402732F98A
S3151FFF13601620891A8842BFF635AD36B2DFF82C072D
S3151FFF137030F8160036B2DFF8241711EB460131F8A5
S3151FFF1380021C401A00B2FFF7D0FA070036B2DFF889
S3151FFF1390140730F8160036B2DFF8081711EB4601AF
S3151FFF13A031F8021C401A00B2FFF7BFFA874280F2DC
S3151FFF13B0608136B2DFF8E40630F8160036B2DFF882
S3151FFF13C0E41611EB460131F8021C081836B2DFF896
S3151FFF13D0CC1611EB460131F8021C401A36B2DFF864
S3151FFF13E0C41621F8160024B2DFF8B80630F9140028
S3151FFF13F0002840F1318124B2DFF8A806002120F82A
S3151FFF1400141036E136B2DFF89C0630F9160036B2F5
S3151FFF1410DFF8901611EB460131F9021CDFF8802623
S3151FFF14201268891A884240F0A48036B2062EC0F28F
S3151FFF14309380DFF85806007800282CD1DFF84C067A
S3151FFF1440012101703000401EDFF83816087036B2D2
S3151FFF1450DFF8500610EB460030F9040C36B2DFF802
S3151FFF1460441611EB460131F9061C01FA80F136B21B
S3151FFF1470DFF8300610EB460030F90A0C36B2DFF8FC
S3151FFF1480242612EB460232F90C2C02FA80F2881A36
S3151FFF1490062190FBF1F536B2DFF8080610EB460082
S3151FFF14A030F8020C281836B2DFF8F81521F81600A7
S3151FFF14B0DFF8E405006840287FF40DAF5FF0FF30CB
S3151FFF14C000E0401C3FB236B2DFF8D81511EB4601DC
S3151FFF14D031F9021C36B2DFF8C42512EB460232F988
S3151FFF14E0022C891A022291FBF2F1791A00FA86F26F
S3151FFF14F0A123DFF844C203FB02C2891811F8A11CFE
S3151FFF15003FB236B2DFF89C2512EB460232F9022CA8
S3151FFF151036B2DFF8883513EB460333F9023CD21A8E
S3151FFF1520022392FBF3F2BA1A00FA86F35FF0A10CBD
S3151FFF1530DFF804E20CFB03E3D25C891A794A1268CF
S3151FFF1540914201DA0528BCDB0528BFF6C4AEDFF8DA
S3151FFF1550480536B20660BEE636B2DFF8480510EB21
S3151FFF1560460030F8020C36B2DFF8381521F81600A0
S3151FFF1570B1E6DFF81805007800283FF4ACAE36B2A7
S3151FFF1580DFF8200530F8160036B2DFF8181511EB15
S3151FFF1590460131F8021C401A00B2FFF7C6F90428AC
S3151FFF15A0BFF699AEDFF8E0040670DFF8E00400210E
S3151FFF15B00170DFF8D00404780DE024B2DFF8E404ED
S3151FFF15C030F91400A12805DB24B2DFF8D804A021C7
S3151FFF15D020F81410641CDFF8B004007800B224B2A0
S3151FFF15E0A042FFF678AEDFF89C040078DFF8B4144C
S3151FFF15F031F8100024B2DFF88C140978611ADFF86E
S3151FFF160088241278DFF89C3433F91220DFF87434FC
S3151FFF16101B78DFF8907437F91330D21A5143DFF86E
S3151FFF162068241278DFF85C341B78D21A91FBF2F12B
S3151FFF1630081824B2DFF86C1421F8140024B2DFF85F
S3151FFF1640640430F914000028B7D524B2DFF8540418
S3151FFF1650002120F81410BDE724B2DFF8480430F943
S3151FFF16601400A12805DB24B2DFF83804A02120F8D7
S3151FFF1670141036B2DFF82C0430F8160036B2DFF836
S3151FFF1680241411EB460131F8021C401A00B2FFF772
S3151FFF16904CF9070036B2DFF8040430F8160036B2ED
S3151FFF16A0DFF8F81311EB460131F8021C401A00B29E
S3151FFF16B0FFF73BF98742BFF68DAB36B2DFF8E40380
S3151FFF16C030F8160036B2DFF8DC1311EB460131F89E
S3151FFF16D0021C401A36B2DFF8C41311EB460131F86C
S3151FFF16E0021C081836B2DFF8B41321F8160024B20D
S3151FFF16F0DFF8A80330F9140000287FF55EAB24B28C
S3151FFF1700DFF89803002120F81410FFF763BBBDE82D
S3151FFF1710F0810000F06CFF1F2E6DFF1F316DFF1F45
S3151FFF1720F46CFF1F5842FF1F2F6DFF1F306DFF1FEA
S3151FFF17302D6DFF1FD441FF1F8042FF1F0020DFF8C3
S3151FFF174058130968DFF84C231268914206DADFF84F
S3151FFF17504003DFF840130968016003E0CC48CE4918
S3151FFF176009680160DFF874090068C01CACE0CB494B
S3151FFF177031F91010002922D0C84931F91010A029BC
S3151FFF17801DD0C84931F91010002918D0C54931F9A4
S3151FFF17901010A02913D0C14931F81010C14A32F8D1
S3151FFF17A010205118DFF88C2D22F81010DFF8841D3A
S3151FFF17B031F910104910DFF87C2D22F81010B749A8
S3151FFF17C031F9101000293CD0B44931F91010A02966
S3151FFF17D037D0B44931F91010002904D0B14931F976
S3151FFF17E01010A0292DD1AD4931F81010AD4A12EBBB
S3151FFF17F0400232F9022CA94B13EB400333F9023C8B
S3151FFF1800D21AA84B13EB400333F9043C02FA83F2B7
S3151FFF1810A24B13EB400333F9043CD21A042392FB6A
S3151FFF1820F3F25118DFF80C2D22F81010DFF8041D04
S3151FFF183031F91010A12904DBDFF8F81CA02221F8CB
S3151FFF18401020984931F9101000293CD0954931F9DC
S3151FFF18501010A02937D0914931F91010002904D053
S3151FFF18608E4931F91010A0292DD18E4931F810104C
S3151FFF18708C4A12EB400232F9022C884B13EB4003C2
S3151FFF188033F9023CD21A874B13EB400333F9043C5F
S3151FFF189002FA83F2814B13EB400333F9043CD21A4E
S3151FFF18A0042392FBF3F2891ADFF8882C22F8101013
S3151FFF18B0DFF8801C31F91010002904D5DFF8741CDE
S3151FFF18C0002221F81020401C7149096881420CDB58
S3151FFF18D0744931F91010714A32F91020891A1529E6
S3151FFF18E0BFF645AF401E6A490860DFF8F00700687C
S3151FFF18F0401E402880F0AD80DFF8E0070068A1E0BA
S3151FFF1900664931F9101000293CD0644931F910108E
S3151FFF1910A02937D0634931F91010002904D0614936
S3151FFF192031F91010A0292DD15C4931F810105D4AED
S3151FFF193012EB4002B2F90220584B13EB4003B3F9E7
S3151FFF19400230D21A574B13EB4003B3F9043002FA96
S3151FFF195083F2524B13EB4003B3F90430D21A04231D
S3151FFF196092FBF3F25118DFF8CC2B22F81010DFF899
S3151FFF1970C41B31F91010A12904DBDFF8B81BA02205
S3151FFF198021F81020474931F9101000293CD045494D
S3151FFF199031F91010A02937D0404931F9101000290D
S3151FFF19A004D03E4931F91010A0292DD13D4931F8F8
S3151FFF19B010103C4A12EB4002B2F90220374B13EBD1
S3151FFF19C04003B3F90230D21A364B13EB4003B3F978
S3151FFF19D0043002FA83F2314B13EB4003B3F90430A1
S3151FFF19E0D21A042392FBF3F2891ADFF8482B22F847
S3151FFF19F01010DFF8401B31F91010002904D5DFF84E
S3151FFF1A00341B002221F81020244931F91010002918
S3151FFF1A1004D0224931F91010A02912D1214931F9D9
S3151FFF1A201010002904D01F4931F91010A02908D121
S3151FFF1A30DFF8001B11EB40014988DFF8F82A22F86F
S3151FFF1A401010401E00287FF55BAFDFF890060021C0
S3151FFF1A5001600F480068401C40280BDA0C480068DD
S3151FFF1A60401C05E0DFF8CC1A502221F81020401C3D
S3151FFF1A704128F7DB70470000276DFF1F286DFF1FEB
S3151FFF1A80296DFF1F2A6DFF1F2B6DFF1F2C6DFF1F5C
S3151FFF1A905C42FF1F6042FF1F6442FF1F646BFF1FF5
S3151FFF1AA0D041FF1FE86BFF1F38B50024002572B614
S3151FFF1AB0DFF8F00C007801287CD1DFF87C0A00786C
S3151FFF1AC00006FAD5DFF8740ADFF8A819096801704E
S3151FFF1AD0DFF8640A00780006FAD5DFF8600A4121AD
S3151FFF1AE00170DFF8540A00780006FAD5DFF84C0AB2
S3151FFF1AF0A1210170402415E0DFF83C0A007800069B
S3151FFF1B00FAD5A120DFF8381A00FB0410285CDFF88E
S3151FFF1B102C1A0870DFF82C0A00F0E4FA6D1CA12DB1
S3151FFF1B20EADB641E002C01D40025F8E7402410E0F1
S3151FFF1B30DFF8040A00780006FAD5DFF8A40530F8A7
S3151FFF1B401400DFF8F8190870DFF8F80900F0CAFA71
S3151FFF1B50641E002CECD5402410E0DFF8DC0900786A
S3151FFF1B600006FAD5DFF8E00930F81400DFF8CC19C4
S3151FFF1B700870DFF8D00900F0B5FA641E002CECD50B
S3151FFF1B80402410E0DFF8B00900780006FAD5DFF829
S3151FFF1B90A40930F81400DFF8A4190870DFF8A409A8
S3151FFF1BA000F0A0FA641E002CECD5DFF8F80B00211D
S3151FFF1BB0017056E0DFF8EC0B007803282CD1DFF815
S3151FFF1BC08C090078002813D1DFF86C09007800060E
S3151FFF1BD0FAD5DFF86809DFF8781909880170DFF889
S3151FFF1BE06C09007890F00100DFF86019087038E083
S3151FFF1BF0DFF8440900780006FAD5DFF84009DFF859
S3151FFF1C00541909880170DFF84409007890F0010024
S3151FFF1C10DFF83819087024E0DFF8880B0078702882
S3151FFF1C200DD1DFF8140900780006FAD5DFF8280969
S3151FFF1C3001210170DFF86C0B0021017011E0DFF845
S3151FFF1C40640B007873280CD1DFF8EC0800780006C8
S3151FFF1C50FAD5DFF8040900210170DFF8480B0021D0
S3151FFF1C60017062B631BD10B4DFF8E808102101809C
S3151FFF1C70DFF8E008B0F90000DFF8D418B1F900105B
S3151FFF1C80401ADFF8241B0880DFF8D0080088DFF82A
S3151FFF1C90181B09880818DFF8C4180880DFF8BC0866
S3151FFF1CA0B0F9000040F2F511884204DBDFF8AC08FB
S3151FFF1CB04FF4FA710180DFF8A408B0F90000DFF8CE
S3151FFF1CC0A018884204DADFF89408DFF89418018019
S3151FFF1CD0DFF890080088DFF890180988DFF8C82A10
S3151FFF1CE0B2F90020DFF884381B88DFF87048B4F993
S3151FFF1CF00040634302FB0131DFF874281288DFF8C7
S3151FFF1D00A83AB3F90030DFF8A44AB4F900401B1B09
S3151FFF1D1003FB0211642291FBF2F10818DFF8441846
S3151FFF1D200880DFF88C0AB0F90000DFF83818B1F920
S3151FFF1D300010884205DADFF82C08DFF8741A0988C5
S3151FFF1D400180DFF82008B0F90000DFF8681AB1F943
S3151FFF1D500010884205DADFF80C08DFF8581A0988E1
S3151FFF1D600180DFF8540ADFF8FC17B1F90010016094
S3151FFF1D70DFF8480ADFF8481A09680170DFF82C0AEE
S3151FFF1D80DFF8241A0988018010BC704770B400233E
S3151FFF1D900022002000210024D04D2D68DFF8206A85
S3151FFF1DA03668B54280F2A080CC4B1B6806E0DBB2DB
S3151FFF1DB0DFF8804734F81340A2185B1CC74C246812
S3151FFF1DC0DFF8FC592D6815EB4404A41E032594FB6D
S3151FFF1DD0F5F4DBB29C42EADA12B20F235A43DFF85D
S3151FFF1DE0E0391B68BD4C24681B1B5B1C92FBF3F27F
S3151FFF1DF0BA4B1B68DFF8C849246814EB43035B1C07
S3151FFF1E00032493FBF4F306E0DBB2DFF8284734F82D
S3151FFF1E10134020185B1CB14C2468DFF8A4592D68AA
S3151FFF1E2014EB4504641E032594FBF5F4DBB29C42B9
S3151FFF1E30EADA00B20F235843DFF884391B68A74C31
S3151FFF1E4024681B1B5B1C90FBF3F0A44B1B68DFF87E
S3151FFF1E507049246813EB44039B1C032493FBF4F381
S3151FFF1E6006E0DBB2DFF8CC4634F8134061185B1C83
S3151FFF1E70DFF84C492468DBB29C42F2DA09B20F2322
S3151FFF1E805943DFF83C391B68944C24681B1B5B1CAA
S3151FFF1E9091FBF3F1DFF82C391B78D3F16403DFF8DD
S3151FFF1EA0284924781B1BDFF824492370DFF81439D0
S3151FFF1EB01B7812B2DFF81049247800B200FB04F03A
S3151FFF1EC002FB0300DFF80429127809B201FB0200A7
S3151FFF1ED0642190FBF1F424B2052094FBF0F0D0F1BE
S3151FFF1EE05000DFF8EC180880DFF8E80800210180B2
S3151FFF1EF0DFF8CC080068042817DBDFF8C408006882
S3151FFF1F00C31E0CE0DFF8CC080088DBB2DFF824160F
S3151FFF1F1031F813100818DFF8BC1808805B1CDBB2FA
S3151FFF1F20DFF89C0800688342ECDBDFF8AC0800682B
S3151FFF1F30DFF8A018B1F90010032291FBF2F1401A46
S3151FFF1F40DFF890180880DFF8780800683E2810DB56
S3151FFF1F50DFF88808DFF8881809880180DFF884080A
S3151FFF1F60DFF8841809880180DFF8800808210180BF
S3151FFF1F7026E0DFF84C08006832380C2810D2DFF84D
S3151FFF1F805C08DFF86C1809880180DFF85808DFF84E
S3151FFF1F90641809880180DFF85408082101800FE0C3
S3151FFF1FA0DFF83808DFF8501809880180DFF8340892
S3151FFF1FB0DFF8481809880180DFF830080E210180F5
S3151FFF1FC0DFF83C08B0F90000DFF810180988DFF8C2
S3151FFF1FD00028B2F90020DFF80C381B88DFF8F0471E
S3151FFF1FE0B4F90040DFF81C58B5F90050641B634372
S3151FFF1FF002FB0131DFF8F4271288DFF8D837B3F970
S3151FFF2000003003FB0211DFF800281288DFF8C43700
S3151FFF2010B3F90030DFF8704DB4F900401B1B03FB0B
S3151FFF202002110A2291FBF2F10818DFF8441B088000
S3151FFF2030DFF83C0BB0F9000040F2AD61884204DBCC
S3151FFF2040DFF82C0B40F2AC610180DFF8240BB0F9EF
S3151FFF205000004FF47A71884204DADFF8140B4FF44D
S3151FFF20607A710180DFF80C0BDFF8041BB1F9001042
S3151FFF20700160DFF89007DFF8581709880180DFF83E
S3151FFF20805407DFF8041D0988018070BC70470020C4
S3151FFF20900021DFF8E42A5FF0FF331360DFF8DC2A45
S3151FFF20A01268100001221100C9B2012904D1DFF8FD
S3151FFF20B0D00A0121017003E0DFF8C40A0021017075
S3151FFF20C00121C9B2012904D1DFF8C00C012101701A
S3151FFF20D003E0DFF8B80C002101707047F06CFF1F9B
S3151FFF20E0646BFF1F0100481E0029FBD1704780B597
S3151FFF20F001F0D1F8DFF88C0A0078002804D00228F7
S3151FFF210000F08A801FD30EE1DFF87C2A0021002012
S3151FFF211001F081F9DFF8742A0121002001F07BF914
S3151FFF2120DFF86C2A0221002001F075F9DFF8302B4A
S3151FFF21300321002001F06FF9DFF8282B042100206F
S3151FFF214001F069F9EFE02A22DFF81C0B0178002066
S3151FFF215001F044F9DFF8142B00210A2001F05BF987
S3151FFF2160DFF84C06B0F9000001F070FA02000021FB
S3151FFF2170502001F08DF9DFF8F82A01210A2001F01E
S3151FFF21804AF9DFF83006B0F9000001F05FFA0200E6
S3151FFF21900121502001F07CF9DFF8D82A02210A20FD
S3151FFF21A001F039F9DFF8D00AB0F9000001F04EFA55
S3151FFF21B002000221502001F06BF9DFF8C02A03212C
S3151FFF21C00A2001F028F9E848008801F049FA0200C1
S3151FFF21D00321502001F05CF9DFF8302B04210A2080
S3151FFF21E001F019F9E148008801F03AFA02000421CB
S3151FFF21F0502001F04DF9DFF8182B05210A2001F0B9
S3151FFF22000AF9DFF8100B008801F02AFA02000521F0
S3151FFF2210502001F03DF986E02A22DFF84C0A0178AB
S3151FFF2220002001F0DBF8DFF8F02A00210A2001F079
S3151FFF2230F2F8DFF8AC05008801F012FA0200002160
S3151FFF2240502001F025F9DFF8482B01210A2001F064
S3151FFF2250E2F8DFF89405008801F002FA0200012177
S3151FFF2260502001F015F9DFF82C2B02210A2001F06F
S3151FFF2270D2F8DFF87C05008801F0F2F9020002218F
S3151FFF2280502001F005F9DFF8102B03210A2001F07A
S3151FFF2290C2F8DFF86005008801F0E2F902000321AA
S3151FFF22A0502001F0F5F8DFF8F42A04210A2001F087
S3151FFF22B0B2F8DFF84405008801F0D2F902000421C5
S3151FFF22C0502001F0E5F8DFF8D82A05210A2001F092
S3151FFF22D0A2F8DFF82805008801F0C2F902000521E0
S3151FFF22E0502001F0D5F8DFF8BC2A06210A2001F09D
S3151FFF22F092F8DFF8D004007801F0B2F90200062148
S3151FFF2300502001F0C5F8DFF8A02A07210A2001F0A7
S3151FFF231082F8DFF8B404007801F0A2F90200072162
S3151FFF2320502001F0B5F801BD80B5DFF858080078D9
S3151FFF2330002840F09E80DFF848080078002800F04C
S3151FFF234098800021322000F0C2FFDFF87404006876
S3151FFF235001F07CF902000021322001F099F8DFF825
S3151FFF23604C0A006801F072F902000021462001F0B5
S3151FFF23708FF80121322000F0AAFFDFF85C04006806
S3151FFF238001F064F902000121322001F081F8DFF824
S3151FFF2390200A006801F05AF902000121462001F0C8
S3151FFF23A077F80221322000F092FFDFF8080A007843
S3151FFF23B001F056F902000221322001F069F8DFF819
S3151FFF23C0F409007801F04CF902000221462001F0C2
S3151FFF23D05FF80321322000F07AFF6348008801F07F
S3151FFF23E03FF902000321322001F052F85F480088AF
S3151FFF23F001F036F902000321462001F049F80421B6
S3151FFF2400322000F064FFDFF8D403008801F028F9BB
S3151FFF241002000421322001F03BF8DFF8C8030088D1
S3151FFF242001F01EF902000421462001F031F80521B3
S3151FFF2430002000F04CFF4B48B0F9000001F006F9F1
S3151FFF244002000521002001F023F80A48006801F069
S3151FFF2450FDF802000521322001F01AF8DFF81007F8
S3151FFF2460B0F9000001F0F2F8020005215A2001F031
S3151FFF24700FF801BD5842FF1F38B500240025DFF8AE
S3151FFF24809C0AFFF72FFEDFF8980A5FF0FF31016006
S3151FFF2490DFF8900A00680500280AC0B2C04304008F
S3151FFF24A0E4B2012C04D1DFF8800A0121017003E099
S3151FFF24B0DFF8740A00210170E4B2022C04D1DFF8A1
S3151FFF24C06C0A0121017003E0DFF8600A0021017029
S3151FFF24D0E4B2042C04D1DFF8580A0121017003E08E
S3151FFF24E0DFF84C0A00210170E4B2082C04D1DFF893
S3151FFF24F0440A0121017003E0DFF8380A0021017049
S3151FFF2500E4B2102C04D1DFF8300A0121017003E079
S3151FFF2510DFF8240A00210170E4B2202C04D1DFF872
S3151FFF25201C0A0121017003E0DFF8100A0021017068
S3151FFF253031BD00006C6CFF1F04A0064007A00640BC
S3151FFF25408042FF1F80380100E86BFF1F406DFF1F92
S3151FFF2550FC6CFF1F106DFF1F346DFF1F006DFF1FEC
S3151FFF25600CFEFFFF0C6DFF1F6842FF1F066DFF1F4F
S3151FFF2570086DFF1F80B5DFF814080078002800F0EC
S3151FFF25801081FFF779FFDFF8A0090078002825D013
S3151FFF2590FFF772FFDFF890090078002802D11DE0D0
S3151FFF25A0FFF76AFFDFF8800900780028F8D1DFF808
S3151FFF25B0D4050078022807D2DFF8C8050078401C2B
S3151FFF25C0DFF8C015087003E0DFF8B80500210170BA
S3151FFF25D0DFF8940600210170FFF789FDDFF84C092C
S3151FFF25E00078002825D0FFF747FFDFF8400900785E
S3151FFF25F0002802D11DE0FFF73FFFDFF83009007803
S3151FFF26000028F8D1DFF87C050078012807D3DFF80B
S3151FFF261074050078401EDFF86C15087003E0DFF8BD
S3151FFF2620640502210170DFF8400600210170FFF7E4
S3151FFF26305EFDDFF850050078002800F0B280FFF737
S3151FFF26401BFFDFF8F0080078002837D0FFF714FFCD
S3151FFF2650DFF8E0080078002802D12FE0FFF70CFF14
S3151FFF2660DFF8D00800780028F8D1DFF818050078C2
S3151FFF2670002806D02022DFF8F0050178002000F0A1
S3151FFF2680ADFEDFF8E4050078072807D2DFF8D80587
S3151FFF26900078401CDFF8D015087003E0DFF8C80587
S3151FFF26A007210170DFF8DC040078002806D02A22F4
S3151FFF26B0DFF8B4050178002000F090FEDFF8700800
S3151FFF26C00078002832D0FFF7D7FEDFF864080078BE
S3151FFF26D0002802D12AE0FFF7CFFEDFF85408007863
S3151FFF26E00028F8D1DFF89C040078002806D02022A6
S3151FFF26F0DFF874050178002000F070FEDFF868052B
S3151FFF27000078012807D3DFF860050078401EDFF841
S3151FFF27105815087003E0DFF85005002101702A22C3
S3151FFF2720DFF844050178002000F058FEDFF808089F
S3151FFF27300078002817D0FFF79FFEDFF8FC07007809
S3151FFF2740002802D10FE0FFF797FEDFF8EC070078AE
S3151FFF27500028F8D10122DFF810050178DFF82404DD
S3151FFF2760007800F053F8DFF8D4070078002818D058
S3151FFF2770FFF782FEDFF8C4070078002802D110E0BA
S3151FFF2780FFF77AFEDFF8B40700780028F8D15FF06D
S3151FFF2790FF32DFF8D4040178DFF8E803007800F092
S3151FFF27A035F801BD336DFF1F026DFF1FFE6CFF1F47
S3151FFF27B06A42FF1F0E6DFF1F10900340356DFF1FEF
S3151FFF27C05C42FF1F6E42FF1F6F42FF1F7042FF1FBC
S3151FFF27D0126DFF1F186DFF1FF46CFF1F1C6DFF1F70
S3151FFF27E07442FF1F1E6DFF1F7642FF1F7242FF1FA0
S3151FFF27F07842FF1F7A42FF1F7C42FF1F7E42FF1F49
S3151FFF28006C42FF1F146DFF1F206DFF1F70B5040065
S3151FFF28100D001600E4B2012C40F0BC80EDB2002D76
S3151FFF282009D0022D43D026D3042D7DD05DD3052D90
S3151FFF283000F09580AEE0DFF80807B0F9000005212C
S3151FFF284001FB06F10818DFF8F81608802A22002177
S3151FFF2850002000F0C3FD0021502000F038FDDFF8F7
S3151FFF2860E006B0F9000000F0F1FE02000021502043
S3151FFF287000F00EFE8EE0DFF8CC0600883018DFF87A
S3151FFF2880C41608802A220121002000F0A7FD01217E
S3151FFF2890502000F01CFDDFF8AC06B0F9000000F079
S3151FFF28A0D5FE02000121502000F0F2FD72E0DFF895
S3151FFF28B0C803B0F900000A2101FB06F10818EE490B
S3151FFF28C008802A220221002000F088FD02215020C5
S3151FFF28D000F0FDFCE848B0F9000000F0B7FE02006B
S3151FFF28E00221502000F0D4FD54E0DFF85C0600887B
S3151FFF28F00A2101FB06F111FA80F0DFF84C1608805A
S3151FFF29002A220321002000F069FD0321502000F039
S3151FFF2910DEFCDFF83406008800F0A2FE020003216A
S3151FFF2920502000F0B5FD35E0DFF82006008830188F
S3151FFF2930DFF8181608802A220421002000F04EFD1A
S3151FFF29400421502000F0C3FCDFF80006008800F0CA
S3151FFF295087FE02000421502000F09AFD1AE0ED4881
S3151FFF296000880A2101FB06F111FA80F0E949088068
S3151FFF29702A220521002000F031FD0521502000F0FD
S3151FFF2980A6FCE448008800F06BFE020005215020DC
S3151FFF299000F07EFDE4B2022C40F0E980EDB2002D7F
S3151FFF29A00ED0022D42D026D3042D75D059D3062D16
S3151FFF29B000F0A880C0F08B80072D00F0BE80D6E008
S3151FFF29C0DFF88C0500883018DFF8841508802A2267
S3151FFF29D00021002000F002FD0021502000F077FCAF
S3151FFF29E0DFF86C05008800F03BFE02000021502037
S3151FFF29F000F04EFDBBE0DFF85C0500883018DFF8FE
S3151FFF2A00541508802A220121002000F0E7FC01212E
S3151FFF2A10502000F05CFCDFF83C05008800F020FE2C
S3151FFF2A2002000121502000F033FDA0E0DFF828054A
S3151FFF2A3000883018DFF8201508802A22022100207F
S3151FFF2A4000F0CCFC0221502000F041FCDFF8080506
S3151FFF2A50008800F005FE02000221502000F018FD3D
S3151FFF2A6085E0DFF8F80400883018DFF8F0140880D7
S3151FFF2A702A220321002000F0B1FC0321502000F081
S3151FFF2A8026FCDFF8D804008800F0EAFD02000321C8
S3151FFF2A90502000F0FDFC6AE0DFF8C4040088301800
S3151FFF2AA0DFF8BC1408802A220421002000F096FCC0
S3151FFF2AB00421502000F00BFCDFF8A404008800F06F
S3151FFF2AC0CFFD02000421502000F0E2FC4FE0DFF8AB
S3151FFF2AD0940400883018DFF88C1408802A220521F9
S3151FFF2AE0002000F07BFC0521502000F0F0FBDFF8F3
S3151FFF2AF07404008800F0B4FD02000521502000F089
S3151FFF2B00C7FC34E0DFF8600400783018DFF858148C
S3151FFF2B1008702A220621002000F060FC06215020A3
S3151FFF2B2000F0D5FBDFF84004007800F099FD0200A6
S3151FFF2B300621502000F0ACFC19E0DFF830040078C6
S3151FFF2B403018DFF8281408702A220721002000F00A
S3151FFF2B5045FC0721502000F0BAFBDFF81004007870
S3151FFF2B6000F07EFD02000721502000F091FC70BD92
S3151FFF2B701A6DFF1F28800340C0F00F40D0F00F4093
S3151FFF2B803C6DFF1F3E6DFF1FFC40FF1F0841FF1FD0
S3151FFF2B909841FF1FDFF8D80340F203110160DFF8EA
S3151FFF2BA0D40340F203110160DFF8CC0340F2031197
S3151FFF2BB00160DFF8C80340F203110160DFF8C003AD
S3151FFF2BC040F203110160DFF8BC0340F203110160FD
S3151FFF2BD0DFF8B40340F203110160DFF8B00340F2E0
S3151FFF2BE003110160DFF8A80340F203110160DFF84C
S3151FFF2BF0A4037FF0FF010160DFF89C037FF0020152
S3151FFF2C000160DFF8980340F203110160DFF89003BC
S3151FFF2C1040F203110160DFF88C0340F203110160DC
S3151FFF2C20DFF8840340F203110160DFF8800340F2EF
S3151FFF2C3003110160DFF8780340F203110160DFF82B
S3151FFF2C40740340F203110160DFF86C0340F20311B6
S3151FFF2C500160DFF868037FF47F5101607047000052
S3151FFF2C60A041FF1FA841FF1F3F6DFF1F1441FF1FFD
S3151FFF2C702041FF1F2C41FF1F046DFF1F3841FF1F00
S3151FFF2C8080B572B6FDF7CCFD00F0C0F900F049FB29
S3151FFF2C90FFF780FFFDF7F6FCFDF798FCFDF70FFC2E
S3151FFF2CA0FDF76EFCC648FFF71DFA9E4800684008F1
S3151FFF2CB010F00100C3490870C348002101702D2081
S3151FFF2CC000F0F1FC592000F0EEFC62B6FFF7DFF9CA
S3151FFF2CD0FFF70DFABD4800780028FBD0FDF7B6FBBE
S3151FFF2CE0FDF72BFEFEF724F8FEF728FDFEF7DCFEA9
S3151FFF2CF0FFF7CDF9FFF73EFCFFF716FBFFF746F889
S3151FFF2D00B24800780028FBD1E4E700004441FF1FCB
S3151FFF2D105041FF1F0A6DFF1F5C41FF1F72B6AC4874
S3151FFF2D2000788006FBD5AB480078C0B2312803D1A7
S3151FFF2D30A9480121017024E0C0B2322803D1A64859
S3151FFF2D40022101701DE0C0B2332803D1A24803211F
S3151FFF2D50017016E0B0F14001C9B2022911D2C0B20B
S3151FFF2D604038002802D0012804D007E09A48732173
S3151FFF2D70017006E098487021017002E097486421B0
S3151FFF2D80018062B670470000166DFF1F3D6DFF1F66
S3151FFF2D906841FF1F7441FF1F8041FF1FB041FF1F87
S3151FFF2DA0B841FF1FC041FF1FC841FF1FF06CFF1F28
S3151FFF2DB0F86CFF1F326DFF1F10B5894800781E2163
S3151FFF2DC090FBF1F201FB12000F282AD18548864995
S3151FFF2DD009680180824800780F280CD18148008836
S3151FFF2DE000F0B8FC5FF03332804B00F0C1FC00F0FF
S3151FFF2DF0E3FD7C4908807E480068400840007C4907
S3151FFF2E0008607B48006850F00100794908607948DF
S3151FFF2E100078002802D1FEF726FF02E07648002140
S3151FFF2E2001607648006850F08070744908606648F4
S3151FFF2E300078002821D16A480078401C684908702D
S3151FFF2E406048007837490968490811F0010188422F
S3151FFF2E5062D034480068400810F0010059490870D5
S3151FFF2E605948012101706648002101705C48002105
S3151FFF2E7001705648002101704EE053480078012823
S3151FFF2E800CD157480078401C5549087054480078A4
S3151FFF2E90182841D34C48022101703DE04A4800786B
S3151FFF2EA0022839D14E480078401C4D4908704C48BE
S3151FFF2EB00078032190FBF1F201FB1200002821D1BC
S3151FFF2EC0002415E0A4B2AC2C11D3A4B260424C4926
S3151FFF2ED00978A1224B4B02FB013140184A49096869
S3151FFF2EE080F84C110320FFF7FDF800BF00BF641CDD
S3151FFF2EF040F24D10A4B28442E4D341480078401CEF
S3151FFF2F003F4908703E480078412805D12F480121C7
S3151FFF2F1001702D480021017010BD000000350C0007
S3151FFF2F2080F00F4090F00F40366DFF1F376DFF1F6C
S3151FFF2F30396DFF1F386DFF1F3A6DFF1F3B6DFF1F5B
S3151FFF2F406A42FF1F0E6DFF1F6842FF1F066DFF1FA1
S3151FFF2F507442FF1F7642FF1F7842FF1F7A42FF1FF1
S3151FFF2F607C42FF1F7E42FF1F6E42FF1F6F42FF1FE6
S3151FFF2F7004B0044000D0044004D0044008D00440ED
S3151FFF2F800CD0044010D0044014D0044018D0044085
S3151FFF2F901CD0044014F10F4094F00F4018C004409A
S3151FFF2FA01CC0044020C0044024C0044028C0044065
S3151FFF2FB02CC0044030C0044034C00440D4F00F403E
S3151FFF2FC0005A6202226DFF1F246DFF1F236DFF1F15
S3151FFF2FD004A0064007A00640336DFF1F0C6DFF1FA1
S3151FFF2FE0266DFF1FFC6CFF1F0C0004403333F33F9E
S3151FFF2FF000000440346DFF1F109003400CB00440C7
S3151FFF3000256DFF1F8042FF1F10F10F4080B5DFF8B0
S3151FFF3010F405006840F203110843DFF8E81508605E
S3151FFF3020DFF8E405006840F203110843DFF8D815FF
S3151FFF30300860DFF8D805006840F203110843DFF880
S3151FFF3040CC150860DFF8C805006840F20311084376
S3151FFF3050DFF8BC150860DFF8BC05006840F20311F6
S3151FFF30600843DFF8B0150860DFF8AC05006840F2CB
S3151FFF307003110843DFF8A0150860DFF8A0050068F5
S3151FFF308040F203110843DFF894150860DFF8900537
S3151FFF3090006840F203110843DFF884150860DFF864
S3151FFF30A084057FF47F410160DFF87C0500684FF4DC
S3151FFF30B080710843DFF870150860DFF87005006838
S3151FFF30C04FF480710843DFF864150860DFF8600569
S3151FFF30D000684FF480710843DFF854150860DFF866
S3151FFF30E0540500684FF480710843DFF848150860E0
S3151FFF30F0DFF844055FF470310160DFF840050068B3
S3151FFF310050F48040DFF834150860DFF8300500689B
S3151FFF311030F48030DFF824150860282000F0F4F81B
S3151FFF3120DFF81805006850F48030DFF810150860C7
S3151FFF313001BD00000821DFF80425126852F4003292
S3151FFF3140DFF8F8341A6000BFDFF8F024126832F494
S3151FFF31508042DFF8E8341A6000BF19E0DFF8DC248D
S3151FFF3160126832F40042DFF8D4341A60DFF8CC2439
S3151FFF3170126852F48042DFF8C4341A6000BFDFF8CA
S3151FFF3180BC24126832F48042DFF8B0341A60400064
S3151FFF31900A00511ED2B2002A0AD00206DED5DFF878
S3151FFF31A09C24126852F40042DFF890341A60DDE760
S3151FFF31B0704700000821DFF88424126832F40032BA
S3151FFF31C0DFF878341A60DFF87424126832F480420D
S3151FFF31D0DFF868341A6019E0DFF86024126832F4EA
S3151FFF31E00042DFF858341A60DFF85024126852F491
S3151FFF31F08042DFF848341A6000BFDFF840241268A8
S3151FFF320032F48042DFF834341A6040000A00511E40
S3151FFF3210D2B2002A0AD00206DED5DFF820241268B2
S3151FFF322052F40042DFF814341A60DDE7704710B519
S3151FFF32300400B1F15000C0B2FFF7BCFFE4B2200992
S3151FFF324050F01000C0B2FFF7B5FF14F00F0050F09B
S3151FFF32500100C0B2FFF7AEFF10BD70B50400002519
S3151FFF326008E02000C0B2FFF765FF761CF6B2802E7E
S3151FFF3270F7D36D1CEDB2082D0CD2B5F15000C0B2BD
S3151FFF3280FFF798FF0120FFF795FF1020FFF792FF2B
S3151FFF32900026EBE770BD38B5002407E00020FFF7D7
S3151FFF32A049FF6D1CEDB2802DF8D3641CE4B2082CC8
S3151FFF32B00CD2B4F15000C0B2FFF77CFF0120FFF71D
S3151FFF32C079FF1020FFF776FF0025EBE731BD38B5F5
S3151FFF32D004000D00B5F15000C0B2FFF76BFF0120D0
S3151FFF32E0FFF768FF1020FFF765FF2900C9B220000F
S3151FFF32F0C0B2FFF79CFF03E00020FFF71BFF641C14
S3151FFF3300E4B2802CF8D331BD07E044F620610A00F2
S3151FFF3310511E92B2002AFAD1401E80B20028F4D164
S3151FFF3320704780B5AE20FFF745FF0020FFF742FF2E
S3151FFF33301020FFF73FFF4020FFF73CFF8120FFF7DD
S3151FFF334039FFCF20FFF736FFA120FFF733FFC82036
S3151FFF3350FFF730FFA620FFF72DFFA820FFF72AFF55
S3151FFF33603F20FFF727FFD320FFF724FF0020FFF79C
S3151FFF337021FFD520FFF71EFF8020FFF71BFFD92058
S3151FFF3380FFF718FFF120FFF715FFDA20FFF712FFF0
S3151FFF33901220FFF70FFFDB20FFF70CFF4020FFF781
S3151FFF33A009FF2020FFF706FF0220FFF703FF8D20EF
S3151FFF33B0FFF700FF1420FFF7FDFEA420FFF7FAFE1D
S3151FFF33C0A620FFF7F7FEAF20FFF7F4FE0020FFF75B
S3151FFF33D044FF00210020FFF72AFF01BD38B5B2F1D8
S3151FFF33E02005C0B27F2801D30020491CC9B2C0B235
S3151FFF33F0FFF71DFF00240AE0E4B2EDB20620DFF857
S3151FFF3400401200FB0510205CFFF794FE641CE4B21C
S3151FFF3410062CF1D331BD2DE9F84304000D0016002C
S3151FFF342000275FF000085FF0000915E05FFA88F8D4
S3151FFF3430FFB20620DFF8081200FB071018F800007E
S3151FFF3440FFF778FE18F101085FFA88F8B8F1060F43
S3151FFF3450ECD3A41D19F101095FFA89F919F80600C2
S3151FFF3460002813D05FFA89F919F80600B0F1200773
S3151FFF3470E4B27F2C01D300246D1C2900C9B22000A2
S3151FFF3480C0B2FFF7D4FE5FF00008DDE7BDE8F183AA
S3151FFF34902DE9F04385B006000C009146002700ADCD
S3151FFF34A04846002100F0AEFA0DD22D208DF8000000
S3151FFF34B09DF800202100C9B23000C0B2FFF78EFF72
S3151FFF34C0761C99F00049484600F0AEFA8046404602
S3151FFF34D000F0BCF80100484600F0C8FA4FF47A71B5
S3151FFF34E088450EDB4FF47A7198FBF1F13031FFB24D
S3151FFF34F000AAB9544FF47A7198FBF1F201FB1288B7
S3151FFF35007F1CB8F1640F0DDB642198FBF1F130319D
S3151FFF3510FFB200AAB954642198FBF1F201FB12888E
S3151FFF35207F1C0AE0B8F1640F07DAFFB2002F04D041
S3151FFF3530FFB200A930227A547F1CB8F10A0F0DDBA8
S3151FFF35400A2198FBF1F13031FFB200AAB9540A21C3
S3151FFF355098FBF1F201FB12887F1C0AE0B8F10A0FF4
S3151FFF356007DAFFB2002F04D0FFB200A930227A5428
S3151FFF35707F1CFFB200A918F130027A54314900F0BF
S3151FFF3580E9FA30D87F1CFFB200A92E227A547F1C7E
S3151FFF35902D4900F0F1FA00F047FA8046642098FBA8
S3151FFF35A0F0F03030FFB200A97854642098FBF0F199
S3151FFF35B000FB11887F1CB8F1010F0BDB0A2098FB5C
S3151FFF35C0F0F03030FFB200A978540A2098FBF0F1D3
S3151FFF35D000FB1188B8F1000F05D47F1CFFB200A8AE
S3151FFF35E018F1300139547F1CFFB200A8002139544E
S3151FFF35F02A002100C9B23000C0B2FFF70CFF05B089
S3151FFF3600BDE8F08320B0044024B0044028B0044036
S3151FFF36102CB0044030B0044034B0044038B00440EE
S3151FFF36203CB0044094F00F40389004403C90044057
S3151FFF3630409004404490044014F00F4000F00F40A8
S3151FFF3640C43CFF1F6F12833A00007A44002840F1E3
S3151FFF36500980F446404200F005F850F000406047ED
S3151FFF3660002800BF0AD0B0FA80F18840D1F19D0132
S3151FFF3670C905020672F1004241EB1020704750F850
S3151FFF3680041B61B150F8042BD30744BFA9F10103F3
S3151FFF36909A18002342F8043B091FFAD1EFE7704738
S3151FFF36A02549086070475C2800DB5B20202190FBC3
S3151FFF36B0F1F1002903D0022929D014D33AE00121C1
S3151FFF36C0202290FBF2F303FB120399401B4A116062
S3151FFF36D00121202290FBF2F303FB120311FA03F0E1
S3151FFF36E01749086026E00121202290FBF2F303FB16
S3151FFF36F012039940134A11600121202290FBF2F316
S3151FFF370003FB120311FA03F00F49086012E00121B0
S3151FFF3710202290FBF2F303FB120399400B4A116021
S3151FFF37200121202290FBF2F303FB120311FA03F090
S3151FFF3730074908607047000008ED00E080E200E0DF
S3151FFF374000E100E084E200E004E100E088E200E03F
S3151FFF375008E100E0010000BF09D0B0FA80F1884000
S3151FFF3760C91CC1F58461090501EBD02140057047CE
S3151FFF3770F0B540F2FF7581EA030C0CF0004C15EA19
S3151FFF378011541DBF15EA1357AC42AF42E5E0BC41CA
S3151FFF3790C1F31301C3F31303801A994143F4801333
S3151FFF37A004D2641E4000494180185941C90241EAAB
S3151FFF37B05051B1FBF3F603FB1611A2FB0675D7EBB0
S3151FFF37C0C020A94102D2761E80185941C90241EA7B
S3151FFF37D05051B1FBF3FE03FB1E11A2FB0E75D7EB78
S3151FFF37E0C020A94103D2AEF1010E801859418902AB
S3151FFF37F041EA9051760546EA8E2EB1FBF3F603FB9F
S3151FFF38001611A2FB0675D7EB8020A94102D2761EA1
S3151FFF381080185941C90241EA50514EEA060EB1FBC3
S3151FFF3820F3F603FB1611A2FB0675D7EBC020A941C2
S3151FFF383002D2761E80185941C90241EA5051B1FB87
S3151FFF3840F3F703FB1711A2FB0735D3EBC020A941E3
S3151FFF385067F100070CBF004247F0010766F3D52744
S3151FFF38604FEA1E31B80814F5806412DDBD0775F1E6
S3151FFF3870004250EB0E5051EB045111F5801F5CBFF8
S3151FFF388041EA0C01F0BD4CF07F6141F0E0410020A1
S3151FFF3890F0BDBD076D0840EA0E5041F48011D4F10B
S3151FFF38A00104B4F120060ADAC4F120060200E04043
S3151FFF38B001FA06F3E1401843B24015430EE0342CDC
S3151FFF38C013DCC6F1200445EA40056D0820FA06F20F
S3151FFF38D0154321FA06F0A1400D43002175F1004261
S3151FFF38E050F1000051EB0C01F0BD00205FEA0C0107
S3151FFF38F0F0BDCFB992185B41B3FA83F704BFB2FA93
S3151FFF390082F6BF190B3FB7F120062FBF02FA06F348
S3151FFF3910BB40C7F1200622FA06F638BF3343BA402B
S3151FFF39201CB1E419641E33E77F4231F00041B1FA3F
S3151FFF393081F404BFB0FA80F6A4190B3CB4F120063C
S3151FFF39402FBF00FA06F1A140C4F1200620FA06F6A2
S3151FFF395038BF3143A0403C1B1AE7AC421ABF05EAEA
S3151FFF39601357AF4212E050EA41061CBF52EA430605
S3151FFF3970BFE750EA4107304661461CBF41EA055182
S3151FFF3980F0BD52EA430C08BFC143F0BD00204FF400
S3151FFF3990001616EB410F98BF16EB430F08BF16EB2A
S3151FFF39A0410F24BFC14305E016EB430F0CBF614612
S3151FFF39B04CEA0551F0BD7047F446400D40EAC12061
S3151FFF39C0490006D200F00EF8004248BF6FF00040D4
S3151FFF39D0604700F007F84FF0004188428CBF08464A
S3151FFF39E04042604740F00040490DA1F58061491CE8
S3151FFF39F005D4D1F11F0154BFC840C01770474FF000
S3151FFF3A00000070474FF0807C1CEB400F94BF1CEBF0
S3151FFF3A10410F05E040EA010C5FEA4C0C01D28842D8
S3151FFF3A20704718BF814270474100090E7F3915D471
S3151FFF3A30D1F11F0114D4400007D2C00140F000404E
S3151FFF3A40C84048BF6FF000407047C00140F00040BC
S3151FFF3A50C8404CBF4FF000404042704700207047A0
S3151FFF3A6000424FF0004058BFC043704790EA010F16
S3151FFF3A7044BF81F0004100F0EBB800BF431A4FF07F
S3151FFF3A8000423EBF5340C01AC91800BFD3095FEAA1
S3151FFF3A90D05C13EB400F34BFB3EB410F40E07CEB21
S3151FFF3AA0D1530CD342EA012122D8D1EB402009D3AF
S3151FFF3AB0400A28BF5FEA500140EBCC507047401ABF
S3151FFF3AC015D04002B0FA80F2521C9040400A4FEACE
S3151FFF3AD03C23B3EB026384BF00EB730007E040F4A4
S3151FFF3AE000001A16DB07C2F10102D04018437047C8
S3151FFF3AF0182BFCDC31FA03F202FA03F3591A38BF0B
S3151FFF3B0042F00102D2EB40203CBF4000ACF1010C5A
S3151FFF3B105FEACC5CC20572F100414CEB5020704747
S3151FFF3B2013EB400F0FD24B0009D0ACEBD153022B37
S3151FFF3B3003DB4902172BDDDD70479143401A430014
S3151FFF3B40D5D10020704713EB410FD0D36FF0000084
S3151FFF3B50704700004FF0807C1CEB400F94BF1CEB9F
S3151FFF3B60410F05E040EA010C5FEA4C0C01D281428E
S3151FFF3B70704718BF88427047FF2212EAD05C1DBFED
S3151FFF3B8012EAD153944593422BE09C44D30780EA14
S3151FFF3B9001021A4043EA002043EA0121A1FB00303C
S3151FFF3BA0410038BF40007CF17F010BDBFE294ADA5B
S3151FFF3BB05B0842EAC15153EA006373F1004C51EBB4
S3151FFF3BC010207047D1F1080CDCF120012FDB5B08B9
S3151FFF3BD010FA01F10B4373F1004120FA0CF050412B
S3151FFF3BE0704794451CBF02EAD153934280EA0102F4
S3151FFF3BF002F000421DD0400019D0490017D05BB913
S3151FFF3C00634514D00902B1FA81F39940BCEB030C4B
S3151FFF3C10C00140F00040C1E70002B0FA80FC10FA75
S3151FFF3C200CF0B3EB0C0CC90141F00041B6E71000D5
S3151FFF3C30704740000AD0490008D010F1807F94BF1B
S3151FFF3C4011F1807F02E042F0FF407047D04370477B
S3151FFF3C50421A3CBF801A89184FF0004CC0F3C75257
S3151FFF3C60FF2A24D0C1F3C75313B3D21AD2F11903B4
S3151FFF3C7027DD4CEA01214CFA03F321EA0303D14066
S3151FFF3C80C20D4CEA0020401834BF20EA0C004CEA54
S3151FFF3C905000D20553EA006373EB0C0C52EB102056
S3151FFF3CA0420012F1807F38BF7047C00DC0057047B5
S3151FFF3CB0490212BF9A4200EB5120F8E7D2F11703D0
S3151FFF3CC0D9D570470000000000000000002F00003C
S3151FFF3CD000000700070000147F147F1400242A7FAB
S3151FFF3CE02A1200626408132300364955225000002A
S3151FFF3CF00503000000001C224100000041221C009A
S3151FFF3D000014083E08140008083E0808000000A01B
S3151FFF3D106000000808080808000060600000002017
S3151FFF3D2010080402003E5149453E0000427F4000F5
S3151FFF3D30004261514946002141454B31001814127B
S3151FFF3D407F10002745454539003C4A494930000148
S3151FFF3D507109050300364949493600064949291E97
S3151FFF3D6000003636000000005636000000081422F9
S3151FFF3D7041000014141414140000412214080002F9
S3151FFF3D800151090600324959513E007C1211127C1E
S3151FFF3D90007F49494936003E41414122007F41414B
S3151FFF3DA0221C007F49494941007F09090901003E3D
S3151FFF3DB04149497A007F0808087F0000417F41007B
S3151FFF3DC0002040413F01007F08142241007F4040F1
S3151FFF3DD04040007F020C027F007F0408107F003ED9
S3151FFF3DE04141413E007F09090906003E4151215EBF
S3151FFF3DF0007F091929460046494949310001017FBC
S3151FFF3E000101003F4040403F001F2040201F003F51
S3151FFF3E104038403F00631408146300070870080703
S3151FFF3E2000615149454300007F41410000552A5516
S3151FFF3E302A55000041417F00000402010204004091
S3151FFF3E4040404040000001020400002054545478B3
S3151FFF3E50007F4844443800384444442000384444D3
S3151FFF3E60487F00385454541800087E090102001871
S3151FFF3E70A4A4A47C007F080404780000447D4000AE
S3151FFF3E80004080847D00007F102844000000417F92
S3151FFF3E904000007C04180478007C0804047800386E
S3151FFF3EA04444443800FC242424180018242418FCF6
S3151FFF3EB0007C0804040800485454542000043F445F
S3151FFF3EC04020003C4040207C001C2040201C003C22
S3151FFF3ED04030403C004428102844001CA0A0A07C72
S3151FFF3EE0004464544C441414141414140A000000A0
S3151FFF3EF0760075007400B100B10073007200710087
S3151FFF3F006F006E006C006C006B006A006800670034
S3151FFF3F106600640063006300610060005F005E006F
S3151FFF3F205C005A005A0059005600550053005200B4
S3151FFF3F3051004E004D004C004B0049004700460004
S3151FFF3F404400430041003F003E003C003B00390058
S3151FFF3F50390036003400340032002F002E002B00AC
S3151FFF3F602B00280025002500230022001F001D000F
S3151FFF3F701C0000003C000000400000004000000045
S3151FFF3F8040000000080020034A051E2328000C00DE
S3151FFF3F90280023003C00190046000F0080B500F0E3
S3151FFF3FA053F800F003F8FEF76BFE01BD80B51C4802
S3151FFF3FB01C4988420BD0002006E01949194A52F8BE
S3151FFF3FC0202041F82020401CB0F5826FF5D31448FE
S3151FFF3FD0FFF766FB1449154A1548801A03E0137845
S3151FFF3FE00B70521C491C0300581E002BF7D1114999
S3151FFF3FF01148401A02E000220A70491C0200501E97
S3151FFF4000002AF8D10D490E4A0E48801A03E013788D
S3151FFF40100B70521C491C0300581E002BF7D101BD04
S3151FFF40200000FF1F0000FF1FD041FF1FEC3EFF1FB9
S3151FFF40309C3FFF1F8042FF1F446DFF1F00000000B4
S3151FFF4040000000000000000080B500F009F80A48D4
S3151FFF405000884FF6FE7108400749088001BD000022
S3151FFF406072B606484CF22051018004484DF62811BE
S3151FFF4070018062B670470000002005400E200540F4
S3151FFF408010B5084979441C31074C7C441A34A142A8
S3151FFF409006D0081D0A68511888470146A142F8D164
S3151FFF40A010BD00BF0800000014000000D3F5FFFF7E
S3151FFF40B0C42A00008042FF1F0000000000F009F81D
S3151FFF40C0002801D0FFF7DCFF0020FEF7D9FD00F027
S3151FFF40D002F80120704700F001B800000746384676
S3151FFF40E000F002F8FBE7000080B5C046C046024A53
S3151FFF40F011001820ABBEFBE726000200746F705F2E
S3151FFF4100626F743A000000007768695F746F703AD8
S3151FFF4110000000006D61785F73706565643A00008B
S3151FFF41206D696E5F73706565643A000073706565D0
S3151FFF4130645F7365743A000073706565645F703AF8
S3151FFF41400000000073706565645F693A0000000038
S3151FFF41507370655F65645F703A0000007374726108
S3151FFF4160696768745F703A00737472616967687410
S3151FFF41705F643A00636F6D655F626F775F703A00CA
S3151FFF4180636F6D655F626F775F643A00C046C046B7
S3151FFF4190C046C046FFF792FF63635F633A000000A6
S3151FFF41A07370655F70693A0073657270643A0000D9
S3151FFF41B0626F775F703A0000626F775F643A000045
S3151FFF41C0666F5F7765693A006D695F7765693A0064
S7051FFF418D0E
